:020000040800F2
:1000000030050020A11C0008291C00082B1C00083A
:100010002D1C00082F1C0008311C000800000000E7
:10002000000000000000000000000000331C000879
:10003000351C000800000000371C0008391C0008AF
:10004000D51C0008D91C0008DD1C0008E11C0008B4
:10005000E51C0008E91C0008ED1C0008F11C000864
:10006000F51C0008F91C0008FD1C0008011D000813
:10007000051D0008091D00080D1D0008111D0008C0
:10008000151D0008191D00081D1D000800000000B6
:10009000000000000000000000000000211D00081A
:1000A000251D0008291D00082D1D0008311D000810
:1000B000351D00080000000000000000391D000888
:1000C0003D1D0008411D0008451D0008491D000890
:1000D0004D1D00083D1C0008511D0008551D00085D
:1000E000591D00085D1D0008000000000000000010
:1000F0000000000000000000000000000000000000
:1001000000000000000000000000000000000000EF
:100110000000000000000000611D00080000000059
:10012000651D0008691D00086D1D0008711D00088F
:10013000751D000800000000000000000000000025
:10014000791D00087D1D0008811D0008851D00081F
:10015000891D00088D1D0008911D0008951D0008CF
:10016000991D00089D1D000800000000000000000F
:1001700000000000A11D000800000000A51D0008EF
:10018000A91D0008AD1D0008B11D00082DE9FC47A0
:10019000050065D0DFF81C77DFF82867BC68F868D1
:1001A00000F003082878C10604F00C0448D524B1F7
:1001B0000C2C08BFB8F1010F2CD13868810702D58B
:1001C000E86900284CD0396808074EBF3968716863
:1001D0000909686A01F0F001814206D200F02FFBA4
:1001E00000283DD100F032FA07E000F02FFA24B9E0
:1001F000686A00F024FB002832D100F0C3FABA6824
:1002000000F0B6FADFF8B406006800F071FB0100F8
:1002100016D015E2E86928B3396841F00101396068
:1002200000F088FB81463868810707D400F082FB24
:10023000A0EB09000328F6D3032001E200F006FA40
:100240002878C10756D5082C04D00C2C08BFB8F16B
:10025000030F18D1386881034CD56868002849D14C
:100260000120EDE1386840084000386000F062FB92
:10027000814638688107E3D500F05CFBA0EB0900FC
:100280000328F6D3D8E76868B0F5803F04D1386812
:1002900040F48030386011E0B0F5A02F386806D106
:1002A00040F480203860396841F4803105E020F462
:1002B00080303860396821F480213960686860B125
:1002C00000F038FB81463868810313D400F032FB1C
:1002D000A0EB09006528F6D3AEE700F02BFB8146C2
:1002E0003868810306D500F025FBA0EB09006528DE
:1002F000F6D3A1E72878810713D5042C04D00C2C61
:1003000008BFB8F1020F2FD13868410502D5E8685F
:100310000028A5D07868296920F0FE4040EA0160F5
:1003200078602878010768D568690028706854D01B
:10033000A96900F0100291423ED000F00303022BA5
:100340008ED0C00732D5716849084900716000F04D
:10035000F1FA80467068810728D500F0EBFAA0EB2F
:1003600008001228F6D367E7E86878B1396841F4E5
:100370008071396000F0DEFA804638684105C9D4E2
:1003800000F0D8FA00F05EF9F7D355E7386820F4AA
:100390008070386000F0CEFA804638684105C0D5DC
:1003A00000F0C8FA00F04EF9F7D345E77168A86984
:1003B00021F0100101437160706840F0010070602D
:1003C00000F0B8FA80467068810716D400F0B2FADF
:1003D000A0EB08001228F6D32EE74008400070601A
:1003E00000F0A8FA80467068810706D500F0A2FAEE
:1003F000A0EB08001228F6D31EE72878410773D532
:10040000B86DC1004FF000080AD4B86D40F08050BC
:10041000B8654FF00108B86D00F08050009000986A
:10042000DFF8A494D9F80000C10513D4D9F800006E
:1004300040F48070C9F8000000F07CFA8246D9F8D8
:100440000000C10506D400F075FAA0EB0A000328ED
:10045000F5D3F1E6A868C10715D5326822F080020D
:1004600000F0800010433060287A4107306807D5DB
:1004700040F004003060316841F0010131600AE071
:1004800040F0010006E031684908490031603068F9
:1004900020F004003060A86841F2893960B100F0B2
:1004A00049FA82463068810717D400F043FAA0EB7E
:1004B0000A004845F6D3BFE600F03CFA82463068B1
:1004C000810706D500F036FAA0EB0A004845F6D3BE
:1004D000B2E6306820F080003060B8F1000F03D041
:1004E000B86D20F08050B8652878810621D5A86ABB
:1004F0000028B0680ED040F00100B06000F01AFA99
:100500008046B068810714D400F014FA00F09AF81D
:10051000F7D391E640084000B06000F00BFA804647
:10052000B068810705D500F005FA00F08BF8F7D325
:1005300082E6E86A002800F08280022864D1F86828
:100540002A6B00F00301914201BF00F070016A6B59
:10055000521EB1EB021F15D1AA6B00F4FE41B1EBA4
:10056000022F0FD1EA6B520800F4C001521EB1EB0A
:10057000425F07D1296C490800F0C060491EB0EB0A
:10058000416F3DD00C2C40D0386820F0807038602E
:1005900000F0D0F904463868810105D500F0CAF9A9
:1005A000001B0328F7D347E6F868DFF820132A6B0F
:1005B0000840696B1043491E40EA0110EA6BA96BC1
:1005C000520840EA0120296C521E490840EA425074
:1005D000491E40EA4160F860386840F08070386039
:1005E000F96841F08071F96000F0A4F904463868B8
:1005F000810124D400F09EF9001B0328F7D31BE6E9
:10060000386881011BD4E7E70C2C3FF429AE386829
:1006100020F080703860F96889088900F960F8680E
:1006200020F08870F86000F085F904463868810190
:1006300005D500F07FF9001B0328F7D3FCE5002067
:10064000BDE8F687A0EB080003287047386840F043
:10065000080038603968686A21F0F00101433960A8
:100660007968286A21F47F4141EA00217960704766
:100670002DE9F0410400884658D0DFF85462306814
:1006800000F00700404509D23168C90848EAC101B5
:100690003160306800F00700404547D12078DFF82E
:1006A0001452C1072AD56068032802D129688A013B
:1006B00008E0022802D129688A0303E0002829689B
:1006C00002D18A0702D431E04A052FD5A9688908EA
:1006D00040EA8100A86000F02DF90746A86861682B
:1006E00000F00C00B0EB810F08D000F023F9C01B24
:1006F00041F289318842F1D3032037E02078810725
:1007000005D5AA68A06822F0F0020243AA60316809
:1007100001F0070188450BD23068C00848EAC000E4
:100720003060316801F00701414501D001201DE032
:100730002078410705D5AA68E06822F4E062024308
:10074000AA602178080706D5A968206921F46051BC
:1007500041EAC001A96000F015F8AA6800F008F8A5
:10076000BDE8F0415548006800F0C2B8BDE8F0812E
:100770005849C2F30312895C4F4A01F01F01C84077
:100780001060704770B54B4A544B9068D66800258E
:10079000002110F00C0006F00306514C03D00C2889
:1007A00012D1012E1AD115682E0704D4444D2E689B
:1007B000C6F3032502E01568C5F30315494E56F844
:1007C000255048B9294624E0042808BF214620D0F6
:1007D00008281ED119461CE00C281AD1D06800F058
:1007E0000300022803D0032808BF1D4600E0254669
:1007F000D168D068D268C0F306204543C1F3021027
:10080000C2F34161401C491CB5FBF0F04900B0FB4C
:10081000F1F1084670BD28482F4A00681368324934
:10082000C3F3022206E024482B4A006813682E49CD
:10083000C3F3C222895C01F01F01C84070477CB538
:100840002A4E054630680024C10002D500F078F831
:100850000EE0306840F080503060316801F0805127
:100860000091009800F06CF8316821F080513160FF
:10087000B0F5007F04D1802D0CD9A12D09D304E05F
:10088000802D88BF032405D801D1022402E0702DF9
:1008900000D101240E480168C90844EAC101016081
:1008A000006800F00700A04201D0012076BD0020C2
:1008B00076BD0000001002400C0000200400002063
:1008C0009410024090100240007000408C809FF90C
:1008D00000200240781B00080810024000127A0035
:1008E0000024F400881B0008CC1C000858100240AB
:1008F00070B50E4E0446B0680025A0B14FF47A7171
:100900000B4AB1FBF0F11068B0FBF1F000F09CF87D
:1009100048B9102C07D2002221464FF0FF3000F0DA
:100920006BF8746000E00125284670BD00000020CF
:100930000C00002001480068704700BF0000002044
:10094000DFF87400006800F4C060704710B5DFF88D
:100950006810B0F5007F086800F4C06019D1B0F5E8
:10096000007F1FD00868DFF85420DFF8544020F4DF
:10097000C06040F4007000F017F800E0401E4A69C3
:10098000530501D50028F9D1486941050AD503204E
:1009900010BDB0F5806F05D0086820F4C06040F449
:1009A00080600860002010BD086032201368434357
:1009B000B3FBF4F0401C7047007000400C000020B6
:1009C00040420F000901020002D4294881547047B7
:1009D000284B02F00F021A4402F8041C7047264B01
:1009E00019684FF6FF020002114000F4E06008436E
:1009F000224908431860704770B51F4B1C68C4F348
:100A000002230124C3F10705052D2EBF0F2504FA8B
:100A100005F56D1E1E1D072E34BF0023DB1E294069
:100A2000994004FA03F3BDE870405B1E1A4011437D
:100A3000C8E7010007D4012200F01F01104B8A40D3
:100A4000400943F82020704710B5401EB0F1807F68
:100A500001D3012010BD0B4C60600F214FF0FF301F
:100A6000FFF7B0FF0021A16007202060002010BD2B
:100A700000E400E018ED00E00CED00E00000FA05F5
:100A800000E100E010E000E038B5040009D004F116
:100A90007005696809B900F01EF800F021F8012816
:100AA00001D1012032BD606A08B100F02AF800F0DF
:100AB0000AF821F02A01FFE7816000F01BF8BDE889
:100AC000324000F0BCB92068416821F49041416097
:100AD00020688168704700202870204600F052BAD4
:100AE0002421696020680268520852000260204692
:100AF00000F00AB82068016841F001010160204659
:100B00007047204600F038B92DE9F04104468E4880
:100B100022681368A168034020690B43616903439D
:100B2000E0690B430343136000265168E06821F439
:100B30004051014351600025A36982498A421CBF8C
:100B4000206A03439768814827F430673B439360EA
:100B50007F4F804BBA4221D11B6803F00303032B64
:100B600029D8DFE803F002624F640127E169B1F59B
:100B7000004F4FF6F07840F0B58067B1012F00F0DC
:100B80008B80022F00F08B80042F00F08D80082FC7
:100B900000F0938099E0FFF73EFE87E06E4FBA4287
:100BA00022D11B6813F00C033DD0042B3DD0082B41
:100BB00028D00C2B3BD010278A42D7D1390006D041
:100BC000022F08D0042F34D0082F35D0B2E0FFF721
:100BD00022FE00285FD0626802EB4201884202D305
:100BE000130383422BD2A5E05C4FBA420CD11B68A1
:100BF00013F0300317D0102B17D0202B02D0302B3E
:100C000015D0D8E70227D7E78A42D4D11B6813F45E
:100C1000406308D0B3F5806F07D0B3F5006FF1D013
:100C2000B3F5406FECE70027C6E70427C4E70827C1
:100C3000C2E7FFF7A7FDCCE74FF40040CBE737B1A1
:100C4000022F0AD0042F0ED0082F16D01BE0FFF77A
:100C5000E2FD00F08BF879410AE0414911EB5200C6
:100C600045EB050104E0FFF78DFD00F07FF86941D9
:100C7000002300F0DDF9064606E0530803F5000303
:100C8000B3FBF2F600E00125A6F540703549884235
:100C900050D22268D6604EE0FFF7C5FD06E06068DE
:100CA000314901EB50010CE0FFF76CFD61684A0827
:100CB00002EB4002B2FBF1F605E06068410801F585
:100CC0008031B1FBF0F6B6B200E00125A6F11000CC
:100CD00040452FD208EA0601C6F3420001432068CE
:100CE000C16028E047B1012F09D0022F0CD0042F9A
:100CF00008D0082F0ED015E0FFF78DFD04E0FFF7B8
:100D000092FD01E0FFF73EFD616800EB5100B0FB92
:100D1000F1F605E06068410801F50041B1FBF0F62D
:100D2000B6B200E00125A6F11000404502D22168CC
:100D3000CE6000E001250020206660662846BDE800
:100D4000F081000000800040F369FFEF0024F40010
:100D50000038014088100240004400400048004034
:100D6000000024F400FD0F000048E8016268010E55
:100D7000560816EB0020704790F82410CA0706D5D5
:100D800002685368816A23F400330B43536090F880
:100D900024108A0706D502685368C16A23F4803399
:100DA0000B43536090F824104A0706D50268536835
:100DB000016B23F480230B43536090F824100A073F
:100DC00006D502685368416B23F400430B4353601C
:100DD00090F82410CA0606D502689368816B23F444
:100DE00080530B43936090F824108A0606D502685E
:100DF0009368C16B23F400530B43936090F8241065
:100E00004A0610D502685368016C23F480130B4323
:100E10005360036CB3F5801F05D15368416C23F414
:100E2000C0030B43536090F824100A0606D50168EE
:100E30004A68806C22F4002202434A607047F8B589
:100E4000044604F170050020E8606FF07E47FFF76C
:100E500071FD0646206801680A0708D500973346E9
:100E600000224FF40011204600F016F860B9206807
:100E700001684A070AD50097334600224FF48001E3
:100E8000204600F009F808B10320F2BD2020686078
:100E9000A86000202870F2BD2DE9F041069C0546AF
:100EA0000E4690461F462868C1693140B1420CBFCA
:100EB00001200020404520D114F1010FF3D0FFF7AD
:100EC00039FDC01B844200D334B900F018F800216A
:100ED00001700320BDE8F081286801684A07E2D567
:100EE000C1690805DFD54FF400612A68116200224C
:100EF00000F005F8C1600270EBE70020EAE728681F
:100F0000016821F4D07101602868816849084900AE
:100F1000816005F17000202141608160704730B42C
:100F2000002513E050F8042BD30744BFA9F10103B7
:100F30009A18091F042942F8045BFAD213468C0759
:100F400044BF15809B1CC90748BF1D7050F8041B87
:100F50000029E7D130BC7047314881B0816841F049
:100F600001018160816801F001010091009902682E
:100F700042F080520260006800F0805000900098BB
:100F800001B0704710B586B00446142200216846AF
:100F900000F0D1F82068234A2349904215D14869CE
:100FA00040F480404861486900F4804000F01EF839
:100FB0004FF4C06100F026F8012200212520FFF740
:100FC0001BFD2520FFF735FD0EE0184A90420BD19E
:100FD000C86840F40030C860C86800F4003000F011
:100FE00005F80F2100F00EF806B010BD0590059829
:100FF0000A6842F001020A600222096801F0010158
:1010000005917047059800910192002102910322F9
:1010100007210491039269464FF0904000F0ACB86C
:1010200058100240003801404C100240004400407B
:10103000D3BBD9B1B2F5803F5BD2022A1ED98C4610
:10104000B1FBF2F102FB11C31B0443EA1043B3FBF3
:10105000F2FC02FB1C3380B240EA0343B3FBF2F024
:1010600002FB103240EA0C4000237047022A05D9E7
:101070008446B0FBF2F002FB10C270474AB105D1C2
:1010800000F0010249085FEA3000704700220023A7
:10109000704700F049B90B000200002100207047A2
:1010A000F7D3002200237047904271EB030CF2D378
:1010B00070B5B1FA81F4B3FA83F52C1BA340C4F1E7
:1010C000200532FA05F63343A2405FF00046E640C1
:1010D00002E05B085FEA3202841A71EB030524BF69
:1010E000204629467641F4D302000B00300000214F
:1010F00070BD70B5B1FA81F4B2FA82F5C4F1200482
:101100006419B4F12006DAD3B2405FF00044F44031
:10111000002502E052085FEA3303C61A71EB020EA3
:1011200024BF3046714664416D41F3D302000B0089
:101130002000290070BD10B5044610460A4601463D
:10114000204600F0F3F8204610BD30B40EE00268EF
:10115000436802440830DC0744BFA9F10104E318E6
:1011600052F8045B43F8045B091FF9D150F8041BE3
:101170000029ECD130BC70472DE9F84F0027644AB4
:10118000644B4FF00F0805460E4634E0624CA54212
:1011900014BF072403248C40604944EA0E0441F83C
:1011A0002C40C143146801EA040C7468E40348BF8E
:1011B00040EA0C0CC2F800C0546801EA040C7468E0
:1011C000A40348BF40EA0C0CC2F804C0946801EACA
:1011D000040C7468E40248BF40EA0C0CC2F808C072
:1011E000D46801EA040C7168890248BF40EA0C0C1B
:1011F000C2F80CC07F1C316831FA07F07AD00124A4
:10120000BC4014EA0100F5D04FEA470C032101FA73
:101210000CF16FEA010E7168012918BF022903D091
:10122000112918BF122912D1A968D6F80C900EEA1C
:10123000010109FA0CF949EA0101A960696821EA8A
:1012400004047168C1F30011B9400C436C60E96893
:10125000B4680EEA010104FA0CF42143E960B90014
:101260007468022C18BF122C12D1FC0805EB840400
:1012700001F01C09D4F820A008FA09FB2AEA0B0A9D
:10128000D6F810B00BFA09F949EA0A09C4F8209017
:101290002C680EEA040E347904F0030404FA0CF40A
:1012A00044EA0E042C607468E400A3D51C6844F082
:1012B00001041C604FEA970C1C6804F001040094C0
:1012C00001F00C01009C154C54F82C4008FA01FE6A
:1012D00024EA0E0EB5F1904F08BF002409D0104C3F
:1012E000A54208BF012404D00E4CA5427FF44EAFA6
:1012F000022450E7BDE8F18F0AB181617047816235
:10130000704742690A4201D081627047816170472B
:101310000004014060100240000C00480800014039
:1013200000040048000800487047000062F30F22E4
:1013300062F31F42401810F0030308D0C91A1FD3EC
:10134000DB0748BF00F8012D28BF20F8022D13004D
:1013500030B414461546103928BF20E93C00FAD8AD
:10136000490728BF20E90C0048BF40F8042D890038
:1013700028BF20F8022D48BF00F8012D30BC70476F
:10138000C91818BF00F8012DCB0728BF00F8012DA0
:101390007047000070B586B000F0F8F800F0AEF8C5
:1013A00000F0EEF84B484C4D01684C4C4C4E41F06F
:1013B00004010160026802F00402059205990268C6
:1013C00042F001020260036803F0010305930599EE
:1013D000026842F0020202600022006800F002008F
:1013E00005904FF4687105982846FFF785FF0122A4
:1013F00004212846FFF780FF00224FF498714FF038
:101400009040FFF779FF012201212046FFF774FF8A
:101410004FF4697100F06AF82846FFF7ADFE4FF40B
:10142000987100F063F84FF09040FFF7A5FE01219E
:101430000091019120460021029103916946FFF736
:101440009BFE40F60640002100900191012202928D
:1014500069462046FFF790FE2248306000210C20AC
:1014600070614FF41654B160F1603161B161F161A6
:101470003162716274603046FFF706FB1A48C6F8A5
:10148000800000210C2206F1840041608160C1606F
:1014900002614FF440710022046041618261C261C7
:1014A000026206F18000FFF7EFFA0424802128464B
:1014B000FFF727FFFA2000F079F8641EF6D14FF409
:1014C000FA6000F073F8304600F084F8012000F074
:1014D0009EF8FEE74C100240000800480004004857
:1014E000100000200038014000440040009101221B
:1014F00000210291039101926946704700B5A3B0A3
:101500004422002105A8FFF716FE00F039F8342226
:10151000002116A8FFF70FFE4FF40070FFF716FA30
:101520004FF4807208921221012205910C92402101
:10153000602209910E92002101220D9111921292C6
:1015400002211822109113921491159105A8FEF70B
:101550001DFE0F20032100900191002202920392B0
:10156000049202216846FFF783F8032016900221B7
:1015700008221791189216A800F0DAF823B000BDDF
:10158000142200216846FFF7D6BD0000032010B5E5
:10159000FFF725FA0020FFF7ABF90024002814BF5D
:1015A0000124FFF7D9FC204610BD000038B50446E1
:1015B000FFF7C0F914F1010F054602D0044988680D
:1015C0000419FFF7B7F9401BA042FAD331BD00BFA1
:1015D0000000002010B5504C206064220121201D25
:1015E00000F07EF908B1002010BD20680068018B72
:1015F00041F00801018300F093F8816841F0010196
:101600008160026842F020020260012010BD01B535
:1016100001236A460021062000F001F801BD2DE9F2
:10162000F0471F463E46054606F1080889469246A1
:10163000404600F0B9F90446B5212170622060707F
:10164000A570380A607184F8039027713A465146B4
:10165000A01D00F047FA3F1DA01C0021002200231E
:1016600004E010F80C5029448A185B1C5FFA83FCD4
:10167000BDB2AC45F5D3C9B2D2B2A01942EA01223B
:101680008171C271244F381D00F081F9060013D01A
:101690000125A8B22118381D00F038F9022811D010
:1016A0006D1CA8B24045F4DB3968086822780285D1
:1016B000016841F080010160204600F01FFA3046C9
:1016C000BDE8F087204600F019FA0020F8E71CB5C5
:1016D000044640F60F022068C169114202D000F0B2
:1016E0001FF813BD8A0648BF838C090611D5006810
:1016F00002060ED56946094800F029F920B921688B
:101700009DF80000088513BD2068016821F0800164
:10171000016013BD00000000100100201401002032
:10172000016A41F47F4141F0FF010162704700000E
:101730002DE9F84305464FF000082868DFF894616A
:10174000810353D5F06C0024C10009D4F06C40F043
:101750008050F0640124F06C00F0805000900098FC
:10176000DFF87471386840F480703860FFF7E2F891
:1017700081463868C10508D4FFF7DCF8A0EB090002
:101780000328F6D34FF003082BE0DFF850713868D8
:1017900010F440701CBF296B88420BD03868396840
:1017A00041F48031396020F440703A6822F480328C
:1017B0003A603860C0070ED5FFF7BCF8814638683C
:1017C000810708D4FFF7B6F8A0EB090041F2893190
:1017D0008842F4D3D6E73A68286B22F44072024379
:1017E0003A601CB1F06C20F08050F0642878C1079A
:1017F00005D5F26F6868920840EA8202F26729789C
:10180000880705D5F16FA86821F00C010143F16745
:101810002978480705D5F16FE86821F030010143C8
:10182000F1672978880605D5F16F286921F44061B0
:101830000143F1672968880505D5F16F286A21F40D
:1018400040210143F1672968480505D5F16F686AB1
:1018500021F440110143F1672978480605D5F16F5D
:10186000686921F440510143F1672978080605D5DC
:10187000F16FA86921F440410143F1672968C80567
:1018800005D5F16FE86921F440310143F16729681A
:10189000880408D5F16FA86A21F040610143F1671F
:1018A000A96A00F00FF82968480308D5F16FE86AC3
:1018B00021F040610143F167E96A00F003F8404616
:1018C000BDE8F283B1F1006F03D1306840F48010BD
:1018D000306070470C1002400070004090100240D1
:1018E00070B50446164630460D46484300F05CF895
:1018F000206008B9032070BD0020A080668101200F
:101900002072A5810021E180002070BD38B5044619
:101910000D4600F03EF808B1022032BDA088A38930
:10192000411CA1805843294625681A46284400F0E6
:10193000D9F8A0886189884204BF0020A080A088CF
:10194000E18888421CBF00202072002032BD38B5DB
:1019500004460B46207AC0B9E088411CE180A18989
:1019600025680A4648432918184600F0BBF8E28863
:101970006089824204BF0021E180E088A18888421A
:1019800004BF01202072002032BD012032BD007A48
:1019900070478188C288914204D1007A401E8041FC
:1019A000C00F70470020704710B50446AFF30080A9
:1019B000204600F005F80446AFF30080204610BD35
:1019C000F8B500F10F04E408E400A0422BD2082C83
:1019D00004D2082402E0083000F047F8DFF80021C4
:1019E0001368190005D1002007E00568A5420DD253
:1019F000011D08680028F8D11868111D00E0191DA4
:101A00000B6883420BD01D68A542F8D359B10B680F
:101A100018680838A04208D2586808600FE000F043
:101A20006FF80028D7D10020F2BD181908601D1DDD
:101A3000586828511E680F68361B3E601C60096894
:101A400000291DBF48680028081D0020106003F110
:101A50000800F2BD10B5040006D0AFF300802046A8
:101A600000F003F8AFF3008010BD002800D17047EC
:101A700070B4A0F108021368072B2ED913F0070FDA
:101A80002BD1DFF85C40616809B18A4203D2516012
:101A9000626015E00146486808B19042FAD30868D0
:101AA0000E18B24219D3964203D11B180B600A4696
:101AB00006E0486810B1134498420ED350604A6063
:101AC000506850B11368D518854206D100262660AB
:101AD0000168CB1813604068506070BC704700000C
:101AE000240100204AB1000011F8013B521E00F809
:101AF000013B1CBF11F8013BF8E77047FFF7AABF95
:101B00000749086808B1002070470648C008C000AF
:101B100008600549C908C900091A0160704700BF7B
:101B20002C01002037050020300700200E480168F6
:101B300041F47001016000220C49086840F0010086
:101B400008608A604FF480520B68094803400B60BC
:101B5000CA6000200B68074A23F480230B60886169
:101B60004FF000611160704788ED00E00010024006
:101B7000FFFFF6EA08ED00E00000000000000000B2
:101B80000102030406070809A0860100400D0300B6
:101B9000801A060000350C0040420F0080841E00B1
:101BA00000093D0000127A000024F40000366E01A6
:101BB0000048E801006CDC0210B50749794418318F
:101BC000064C7C44163404E00A68081D114488471A
:101BD0000146A142F8D110BD2C0000004C000000CD
:101BE0004EF68851CEF20001086840F4700008609B
:101BF000BFF34F8FBFF36F8F4FF00070E1EE100A0D
:101C0000704700001BF3FFFF2001000010000020C0
:101C10000000000037F5FFFF1000000094000000F6
:101C200000000020000000007047FEE7FEE7FEE72E
:101C3000FEE770477047704700F006B80148FFF7AD
:101C400046BD00001000002002490A68886882181A
:101C50000A6070470000002000F00DF8002801D055
:101C6000FFF7AAFFAFF300800020AFF30080FFF77B
:101C700091FB00F002F80120704700F001B800006D
:101C80000746384600F002F8FBE7000080B5AFF3E6
:101C90000080024A11001820ABBEFBE726000200BC
:101CA00001488047014800472D1B0008C11C00085F
:101CB00000000000100000000100000000093D00CD
:101CC000AFF30080FFF78CFFFFF7C6FF00000000B6
:101CD00001020304FFF7FEBFFFF7FEBFFFF7FEBFE1
:101CE000FFF7FEBFFFF7FEBFFFF7FEBFFFF7FEBF28
:101CF000FFF7FEBFFFF7FEBFFFF7FEBFFFF7FEBF18
:101D0000FFF7FEBFFFF7FEBFFFF7FEBFFFF7FEBF07
:101D1000FFF7FEBFFFF7FEBFFFF7FEBFFFF7FEBFF7
:101D2000FFF7FEBFFFF7FEBFFFF7FEBFFFF7FEBFE7
:101D3000FFF7FEBFFFF7FEBFFFF7FEBFFFF7FEBFD7
:101D4000FFF7FEBFFFF7FEBFFFF7FEBFFFF7FEBFC7
:101D5000FFF7FEBFFFF7FEBFFFF7FEBFFFF7FEBFB7
:101D6000FFF7FEBFFFF7FEBFFFF7FEBFFFF7FEBFA7
:101D7000FFF7FEBFFFF7FEBFFFF7FEBFFFF7FEBF97
:101D8000FFF7FEBFFFF7FEBFFFF7FEBFFFF7FEBF87
:101D9000FFF7FEBFFFF7FEBFFFF7FEBFFFF7FEBF77
:101DA000FFF7FEBFFFF7FEBFFFF7FEBFFFF7FEBF67
:041DB000FFF7FEBF7C
:0400000508001CC112
:00000001FF
