:020000040800F2
:1000000000070020E1470008E9460008EB46000829
:10001000ED460008EF460008F14600080000000029
:10002000000000000000000000000000F34600088F
:10003000F546000800000000F7460008F9460008F1
:1000400005480008094800080D4800081148000844
:1000500015480008194800081D48000821480008F4
:1000600025480008294800082D48000831480008A4
:1000700035480008394800083D4800084148000854
:1000800045480008494800084D48000800000000A5
:1000900000000000000000000000000051480008BF
:1000A00055480008594800085D48000861480008A4
:1000B00065480008000000000000000069480008D2
:1000C0006D48000871480008754800087948000824
:1000D0007D480008FD4600080347000881480008E5
:1000E0008548000889480008000000000000000062
:1000F0000000000000000000000000000000000000
:1001000000000000000000000000000000000000EF
:1001100000000000000000008D4800080000000002
:100120009148000895480008994800089D48000833
:10013000A1480008000000000000000000000000CE
:10014000A5480008A9480008AD480008B1480008C3
:10015000B5480008B9480008BD480008C148000873
:10016000C5480008C9480008000000000000000061
:1001700000000000CD48000800000000D148000841
:10018000D5480008D9480008DD4800082DE9F14F9E
:10019000B2B09946924600230691CDE900333C9ACD
:1001A0000F930DF14A0114914A7011E0329E5746A7
:1001B0002C4617F8011B0698B0470028069000F05F
:1001C00026810F98401C641E0F90F2D13296AA44EB
:1001D0009AF80000252808D10021002209910A92EE
:1001E0000B910C920D910E920FE06A464FF0FF3189
:1001F000504601F07FF8050002D10F9800F066BE6E
:10020000D4D50125E3E741F001011AF8010F2028B8
:10021000F9D023280CD02B2804D02D2805D0302845
:1002200009D00BE041F00201EFE741F00401ECE7F7
:1002300041F00801E9E741F01001E6E72A280FD173
:10024000D9F8002052F8040BC9F8002000281190BA
:1002500003D54042119041F004010AF1010A14E073
:100260001192DFF8EC3B0AE01198984205DA00EBB6
:10027000800402EB4402303A11920AF1010A9AF822
:100280000020A2F130000A28EED39AF800002E28B0
:1002900003D04FF0FF32109229E01AF8010F2A28FC
:1002A00009D1D9F8000050F8042BC9F800001092C9
:1002B0000AF1010A1BE02D280CBF0AF1010A0020F7
:1002C00000221092DFF8882B0BE040B9109B93427C
:1002D00005DA03EB830504EB4504303C10940AF186
:1002E000010A9AF80040A4F130030A2BEDD3ADF8CF
:1002F00048100FF660309AF8001001F005F808B1C8
:100300001AF8010B8DF84A009DF84A00682805D1BB
:100310009AF8000068280CD1622106E06C2804BF1E
:100320009AF800006C2804D171218DF84A100AF166
:10033000010A1FA808901AF801BBBBF125012DD0B6
:100340001C3900F06181091F022940F25D810E39DC
:100350002AD0491F00F0B284093900F05581891E66
:1003600000F04885491E00F0F484491E022940F23D
:100370004B81091F00F0ED84491F00F0BA80491E2F
:1003800000F09C84491E65D0C91E21D0891E00F052
:100390009584C91E00F0928400F04BBD25238DF892
:1003A0007C30012109912AE06C208DF84A00D9F8AF
:1003B000000050F8042BC9F80000002A43D114991A
:1003C000487800283DD04FF0FF340FF6902012E01F
:1003D0009DF84A006C28EAD0D9F8000050F8044B88
:1003E000C9F800000794D4B91499487898B14FF02F
:1003F000FF340FF6842000F0A1FF201A07D13298B5
:100400001FAA04A900F065FD00287FF5E1AE4FF0BA
:10041000FF3000F05BBD0FF67C200790EFE7109DEA
:10042000002D04D5204600F0A9FF044607E02A4627
:10043000204600F0C3FF002814BF041B2C460A947A
:10044000DDE70FF65422329804A900F0C8FD002819
:10045000D5D5DCE7D9F8001051F8040BC9F8001025
:1004600020F00004002121F0FF351FABCDE9044549
:100470000793DDE9042308993C2413B90AB91098BD
:1004800098B102F00F053035641EEEB23A2EA8BFC7
:100490002735120942EA03721B090D5508BF002ACD
:1004A00003D007980D19A842EBD308190790C4F19F
:1004B0003C0210980A92824209DABDF84810821A6A
:1004C0004FF6EF7001400C92ADF8481097E7002806
:1004D00095D59DF8480000F0140010288FD1119B8D
:1004E00009990C985B1A1B1A9A1A002A87DD0C923C
:1004F00085E71499487820B14FF0FF340FF69C102F
:1005000079E79DF84A00622862D0682819D06A28E5
:1005100040D06C2806D071284DD074282DD07A2870
:100520001ED064E0D9F8001051F8040BC9F800108F
:1005300020B94FF0FF340FF67C105CE70F99016093
:100540005DE7D9F8001051F8040BC9F8001020B984
:100550004FF0FF340FF65C104DE70F9901804EE726
:10056000D9F8001051F8040BC9F800100028E5D1A3
:100570004FF0FF340FF63C103DE7D9F8001051F86A
:10058000040BC9F800100028D8D14FF0FF340FF643
:10059000241030E7D9F8001051F8040BC9F8001006
:1005A00020B94FF0FF340FF60C1024E70F9AD31741
:1005B000C0E9002323E7D9F8001051F8040BC9F86B
:1005C00000100028F2D14FF0FF340FF6E80012E7D8
:1005D000D9F8001051F8040BC9F8001020B94FF0F9
:1005E000FF340FF6D00006E70F99017007E7D9F83E
:1005F000001051F8040BC9F8001000289ED14FF0EC
:10060000FF340FF6B000F6E6D9F80020D21D22F034
:100610000702C9F80020D2E900010832C9F8002019
:10062000CDE90401C80F02D009982D210AE0BDF8D8
:100630004800810702D509982B2103E0C00705D5A2
:10064000099820211FAA1154401C09901FA809993C
:100650004BF020024318DDE90401CDE92E01612AA7
:10066000079315AC0BD01098002802D506201090E7
:1006700005E001BF4BF02000672801211091DDE962
:10068000040148004015401C0A4611D109030FD04F
:10069000ABF1610503201A2D0A9002D20FF6A031AA
:1006A00001E00FF6A0310322184600F0B3FEA6E6E3
:1006B00050B9120308D1ABF1610503201A2D0A903D
:1006C00016D30FF68831EEE7DDE90401CDE93001FC
:1006D000DDE9302323F00047B7F5801F22F0000644
:1006E0000DD20022002F08BF002E029203D116E087
:1006F0000FF65431D7E702AA00F0E0FE0FE0DFF872
:10070000F00ADFF8F01A00EB17500290DDE9302311
:100710004FF0FF301940DFF8E07A10403943CDE95F
:1007200004014BF0200061280DD1079830210170A1
:10073000821CBBF1610F07920CBF782158214170D8
:100740000998801C0990DDE9040120F0000231F0D5
:10075000004308BF002A02D10026002571E14BF0BA
:100760002008B8F1610F40F0BE801098002847BF04
:1007700021210391401C0390039FDDE92E017F1C82
:1007800000220023DDE9044500F0D0FE02998DF837
:10079000542038BF85F00045091F002F02910DF14C
:1007A00055065DDDDFF8541ACDE9302140F2FF73C4
:1007B0002E93204629460022002300F0CFFE4FD280
:1007C0004800400D00F11C0315D0002B13DD2E98BE
:1007D00083420ADBDDE9300121F0004005F00042F0
:1007E0000243DDE93001114611E06FF31E5141EA89
:1007F000035120460BE024F0000035F0004108BF13
:1008000000280FBF29461C22294600F0BFFE0446DF
:100810000D4600F059FFFF1F002F804609DD00F054
:1008200071FF02460B462046294600F07DFF044634
:100830000D46F01D0721B8F1000F0CDD491E5EBF0B
:1008400008F00F0200F8012D4FEA2818F3D502E056
:10085000002200F8012D491EFAD5C61D002FA8DC84
:100860000DF15500361A03988642D8BF304600284D
:100870000DF1550430D4B04206DA0DF155010A5C91
:10088000082AA8BF0F2100DA0021024615AB134445
:1008900000E0401E13F80159521E8D42F9D00F2975
:1008A00004D10DF155018B5C5B1C8B54002A04D5DF
:1008B0000299091D15AC401C0291411E0CD462180E
:1008C000ABF13A0613783033DDB23A2DA8BFF318F6
:1008D000491E02F80139F5D51099002940F1AF8081
:1008E000421E1092ABE00299DFF8142947F29750AC
:1008F000414391FBF2F2DDE92E45029225F00045DD
:10090000D2F1070204DD2046294600F04DFC0BE041
:1009100052420020DFF8EC1800F046FC02460B467D
:100920002046294600F072FF0446B8F1660F109881
:1009300006BF029F0A3706273F18142FC8BF142787
:1009400030208DF854000D460020DFF8BC18CDE9AA
:100950002E010DF15506002F33DD2046294601F00A
:1009600079F801460A4606F1080304200A26B2FB7C
:10097000F6F606EB860EA2EB4E02303203F8012C9F
:100980000A22B6FBF2F202EB820EA6EB4E063036DE
:10099000401E03F8026DE9D1083F002F03F108065D
:1009A000D9DD084601F06AF802460B462046294682
:1009B00000F0BAFEDDE92E2301F06EF804460D4684
:1009C000CBE70DF15500361A0DF1550404E00298FD
:1009D000401E761E0290641C20783028F7D0B8F1B3
:1009E000660F02D10299491C04E0B8F1650F0CBFF3
:1009F00001210021109808188642B8BF701E0028F7
:100A00001DD4B04204DA215C3429C8BF392100DC8E
:100A100030210246631E9D1800E0401E15F8016952
:100A2000521E8E42F9D0392902D1A15C491CA15431
:100A3000002A04D50299491C1C46401C0291064616
:100A4000029D00F05BFC406A0778DDF8408030B220
:100A5000002802DC01260FF2F8744BF02000662813
:100A600008BF6D1C16D0672846D128B210F1040FBC
:100A700048DB404546DA9DF848006D1C010703D469
:100A800030B24045B8BF804628B2B8EB000848BF36
:100A90004FF000080FFA85FB07980A99BBF1000F89
:100AA00000F3B2804A1C0A9230234354B8F1000F7D
:100AB00003DC9DF84800010704D50A98411C0A91FF
:100AC00007990F5418EB0B0FB8BFC8F100052DB2F2
:100AD00068420D90A84432B29045B8BF4646079B85
:100AE0000A9836B20B9632462146184400F092FC22
:100AF000A8EB06000E90CBE0BBF1610F17D14FF0D1
:100B0000700B19E030B2404504DA9DF848100A072E
:100B100058BF8046B8F1010848BF4FF00008BBF14C
:100B2000670F14BF4FF0450B4FF0650B04E0BBF1AE
:100B3000410F08BF4FF0500B0A98411C0A91B8F1C1
:100B4000000F079914F8012B0A5403DC9DF84800A4
:100B500001071AD50A98411C0A91B8F1000F0799AC
:100B60000F5412DD761E30B2804507980A9BB8BF3D
:100B7000464632B22146184400F04CFC0A9936B27F
:100B800071180A91A8EB06000D9007980A9908447D
:100B90002AB2002A80F800B003D42B224270811CB4
:100BA00004E02D2141701546811C6D4200202EAAC3
:100BB0000A2409E02B4693FBF4F505EB8506A3EB2D
:100BC000460302F8013B401C2DB2002DF2DC012847
:100BD00006DC4BF02002652A04BF302201F8012B0D
:100BE00000282EAA08D1302001F8010B06E0401E93
:100BF000135C303301F8013B0028F8DC079A0A98AF
:100C00001044091A0B9143E0084431B22AB29142D0
:100C100019DA32B2214600F0FDFB0A9936B271189A
:100C2000ABEB0606B8F1000F0A910D9603DC9DF8B8
:100C30004800020704D5079847540B99491C0B91AB
:100C4000CDF8388024E0214600F0E4FB0A98761BBA
:100C50005844B8F1000F0A9003DC9DF848100A07C9
:100C600003D5411C0A9107990F5430B2804507986B
:100C70000A9BB8BF464632B204EB0B01184400F0A1
:100C8000C9FB0A9836B230180A90A8EB06000D90FE
:100C90009DF8480000F0140010287FF4B0AB099ACA
:100CA0000A990D988A180B9982180E988A1882183A
:100CB00011988242BFF6A3AB821A18E49DF84A004D
:100CC000622808D068280ED06A2814D06C281FD05B
:100CD000712810D01CE0D9F8001051F8040BC9F8A5
:100CE0000010C0B21AE0D9F8001051F8040BC9F88E
:100CF000001080B212E0D9F80020D21D22F00702C5
:100D0000C9F80020D2E900010832C9F8002006E045
:100D1000D9F8001051F8040BC9F800100021CDE9F2
:100D200004019DF8480001075AD5DDE90423002B92
:100D300008BF002A54D04BF02000782850D10998E1
:100D40001FA930220A54401C431C099301F800B02B
:100D500046E09DF84A00622808D068280ED06A282C
:100D600014D06C281FD0712810D01CE0D9F80010C6
:100D700051F8040BC9F8001040B21AE0D9F800107D
:100D800051F8040BC9F8001000B212E0D9F80020A5
:100D9000D21D22F00702C9F80020D2E90001083272
:100DA000C9F8002006E0D9F8001051F8040BC9F882
:100DB0000010C117CDE90401002902D509982D21A1
:100DC0000AE0BDF84800810702D509982B2103E00D
:100DD000C00705D5099820211FAA1154401C09906D
:100DE0001FA809990144079104A8594600F057F932
:100DF000FFF705BB9DF84A006C280BD00121099133
:100E0000D9F8000050F8041BC9F800008DF87C10D8
:100E1000FFF7F5BAD9F8000050F8041BC9F8000034
:100E200015914FF0FF3210920021169115AAFFF78D
:100E30000ABB25210122BBF1000F8DF87C1009921D
:100E40003FF4DDAA8DF87DB00221FFF7ABBA0000B8
:100E5000CBCCCC0C686A6C747A4C00007072696EF2
:100E600074665F733A2062616420256C732061723E
:100E700067756D656E7400007072696E74665F737D
:100E80003A2062616420257320617267756D656E1A
:100E90007400000000000000000000007072696E25
:100EA00074665F733A20256E20646973616C6C6FA1
:100EB000776564007072696E74663A2062616420BE
:100EC000256E20617267756D656E740033B0BDE884
:100ED000F08F2DE9FC410F46064690467A6B786903
:100EE000396ABC6A121AB869521A796A121AF86910
:100EF000521A121A97F83800141B41070FD42020F9
:100F0000002C8DF800000ADD254601236A4639468B
:100F1000304600F07DF900285DD16D1EF5D17B696A
:100F200042463946304600F073F9002853D130204C
:100F30008DF800003D6A002D09DD01236A4639461F
:100F4000304600F065F9002845D16D1EF5D1BB692A
:100F5000FA683946304600F05BF900283BD1302072
:100F60008DF800007D6A002D08DD01236A463946B0
:100F7000304600F04DF970BB6D1EF6D1F868B969C6
:100F8000FB6942183946304600F042F918BB302060
:100F90008DF80000BD6A002D08DD01236A46394640
:100FA000304600F035F9B0B96D1EF6D197F838002B
:100FB00041070DD52020002C8DF8000008DD01230D
:100FC0006A463946304600F023F920B9641EF6D14E
:100FD0000020BDE8F6814FF0FF30BDE8F6812DE935
:100FE000F8470D46A3B02F6B002F8246904648BFAE
:100FF0006FF0004700F021FE696B401801AA002144
:10100000C2E90011812828BF4FF0FF3044D2894641
:101010001EE0A74230DB6869201881280BD300212D
:10102000696303AA29465046FFF753FF5FEA0009A8
:1010300022D40020686103AB6E6922466946981984
:1010400000F0E8F9A6196E6158F8040BA0B13F1B37
:10105000002F11DDD8F8001001AA684600F04CF905
:101060000446002C05D4D8F800000028D1D1641E15
:10107000CFD54FF0FF390EE0B9F1000F504604D143
:1010800003AA2946FFF725FF8146B9F1000F02D1D7
:10109000002068616863484624B0BDE8F0872DE908
:1010A000FC4307466F293E6908BF082405D041F07C
:1010B0002000782814BF0A2410243C25D7E90023F7
:1010C000642918BF69299046994605D1002B03D59C
:1010D000D8F1000869EB4909B9F1000F08BFB8F170
:1010E000000F0CD1386B50B9082C39D197F8380063
:1010F000010735D530203B2586F83B0030E08DF8E0
:101100000010404649462246E31700F09BFD30326E
:10111000D0B26D1E3A28019504DB9DF80000A0F1C5
:1011200051018A187255404649462246E31700F09D
:1011300089FD80465FEA010908BFB8F1000F03D0BE
:10114000F86871198842DCD3082C09D197F8380067
:10115000010705D5705D302802D06D1E3020705516
:10116000C5F13C02BA617119F960386B824208DA44
:10117000821A3A624FF6EF70398F01403987BDE825
:10118000F38300280ED597F8380000F014001028DB
:1011900008D17B6B7969386A5B1A1B1A9A1A002A84
:1011A000C8BF3A62BDE8F3832DE9D04306460F4637
:1011B00014464FF00008DFF8549012E0E00707D51E
:1011C00042464B463046394600F066FC06460F461E
:1011D0004046494642464B4600F05EFC641080465D
:1011E0008946002CEAD130463946BDE8D08300005C
:1011F00002FCFFFFFFFF0F800000E03F0000F07FD8
:10120000A08601000000F03F84D7974100002440F1
:10121000F8B505460E4617461C4600205CB117F887
:10122000011BB068A847B06030B1F06A401CF062A2
:101230000020641EF3D1F2BD4FF0FF30F2BD00007C
:101240006E616E004E414E00696E6600494E46006A
:10125000300030B4002513E050F8042BD30744BF0E
:10126000A9F101039A18091F042942F8045BFAD274
:1012700013468C0744BF15809B1CC90748BF1D70CF
:1012800050F8041B0029E7D130BC70471C48704758
:1012900070B45368D41801E05B1C491E042B08DAB3
:1012A00000291FBF057804F8015B10F8016B002EC0
:1012B000F2D1536070BC704738B514461D4661B119
:1012C000FFF7E6FF61686A6B204690476FF0010206
:1012D000811A02D0491E01D001E003E005E000219F
:1012E000616032BD6FF0010032BD4FF0FF3032BDA2
:1012F000DA6B1047024BDFE7014BF9E70148704713
:10130000FC000020C4000020C9B202788A421AB151
:101310001CBF10F8012FF9E718BF00207047B1F586
:10132000807F02D34FF0FF3070470170012070477B
:101330000078401E8041C043C00F704780B500B99F
:1013400006A005490B681BB122220021984701E045
:1013500000F090FD222002BDFC020020636F6E733E
:10136000747261696E742068616E646C65723A2093
:10137000626164206D6573736167650000F101034C
:10138000810704D010F8011B820781B1FAD10268ED
:10139000A2F10131914311F0803104BF50F8042FC4
:1013A000F6E709BAB1FA81F100EBD100401CC01A8E
:1013B00070470268531C036011707047C9B28307FD
:1013C00006D0521E22D310F8013B9942F7D11FE0FC
:1013D000083A13D302F1040241EA012141EA014132
:1013E00050F8043B121F21BF4B40A3F1013C2CEAF3
:1013F000030C1CF0803FF3D0C9B2001F083210F874
:10140000013B521E28BF91EA030FF8D818BF0120F4
:10141000401E704762B38B0708D0521E11F8013B83
:1014200000F8013B00F024808B07F6D1830740F0E1
:10143000208000BF103A07D330B4B1E83810103A1A
:10144000A0E83810F9D230BC530724BFB1E8081027
:10145000A0E8081044BF51F8043B40F8043BD20711
:1014600024BF31F8022B20F8022B44BF0B78037005
:101470007047121F17D35B0009D151F8043B20F8C5
:10148000023B1B0C121F20F8023BF6D20BE051F876
:10149000043B00F8013B1B0A20F8023B1B0C121F07
:1014A00000F8013BF3D238BF121D521E24BF11F8C1
:1014B000013B00F8013BF8D870472E0010B51446E8
:1014C00000F002F8226010BDC1F30A5343B14A0094
:1014D00012F5001F28D2A3F2FE32A1EB0251704791
:1014E00050EA410C20D001F0004C31EA0C01B1FA75
:1014F00081F204BFB0FA80F3D2180B3AB2F12003A4
:101500002CBF00FA03F1914041EA0C013EBFC2F149
:10151000200C20FA0CF319439040524240F2FD3364
:10152000D21A01EB03517047002270474FF4001CA0
:101530001CEB410F94BF1CEB430F09E041EA030C85
:1015400050EA4C0C52EA0C0C03D2994208BF90426C
:10155000704714BF8B428242704743004FF4001C17
:101560001CEB410F94BF1CEB430F09E041EA030C55
:1015700050EA4C0C52EA0C0C03D28B4208BF824258
:10158000704714BF9942904270470000124254D4F1
:1015900040F2FF7C1CEA11530FD0634531D09B18F9
:1015A00063453CBF01EB0251704701F0004141EA45
:1015B0000C510020AFF30080704750EA410320D067
:1015C00001F0004C91EA0C011CD0B1FA81F30B3B05
:1015D0009A420DD9D21A994051EA0C01C3F1200C5C
:1015E00020FA0CFC61449840531C40F2FF7CD7E782
:1015F000914041EA0C01C2F1200C20FA0CF319438E
:1016000090407047B0FA80F31533202BE0D3202AA6
:10161000EED3203A203B9A4209D9D21A00FA03F1BC
:1016200041EA0C010020531C40F2FF7CB8E700FAAD
:1016300002F141EA0C0100207047524240F2FF7C67
:101640001CEA11530DD06345DBD0B2EB030C3CBF59
:10165000A1EB025170470CF1010221EA035141F460
:10166000801150EA410CCCD001F0004C352A27DC27
:1016700030B481EA0C01B2F1200309DAC2F120038F
:10168000044601FA03F5D0402843D1409C400CE0C9
:10169000C3F12002450020FA03F418BF44F001040E
:1016A00021FA03F091400C43002174F1004550F100
:1016B000000051EB0C01244230BC7FF47BAF70473B
:1016C0006146002076E70000C1F30A5340F2FE3283
:1016D0009B1A14DDD3F120034FEAE17208DDC90241
:1016E00041EA505141F00040D840801850407047C6
:1016F00003F2E13010B1D24382F000407047002085
:1017000070470000C11768B14840401AB0FA80F233
:101710009040D21CC907C2F5846241EA025202EB32
:10172000D02140057047000070B44FF0004591EAA9
:10173000030F40F1A3836B40841A71EB030603D2BD
:10174000001BB141121973414FF4001C1CEB410FF7
:1017500034BF7CEB430442E00C0DA4EB1356352E52
:101760004FDC45EAC323DB0A45EAC121C912B6F1C1
:1017700020050DDD63FA05F6EB4086EA030512420B
:1017800018BF45F00105C01851F100010CD213E05B
:1017900062FA06F5F2405540F3415A40B340F34037
:1017A0005A408018594107D349085FEA30005FEA80
:1017B000350528BF45F0010501F58011420875F196
:1017C000004250F1000041EB04514E0016F5001F9D
:1017D00070BC38BF70470020090D090570471CEB2D
:1017E000410F10D252EA43060BD0BCEB410F05D893
:1017F0000C0DAB43661E342EB6DD02E0AB43801801
:10180000594170BC704770BC70470000F0B540F2A1
:10181000FF7581EA030C0CF0004C15EA11541DBF52
:1018200015EA1357AC42AF42E5E0BC41C1F31301E6
:10183000C3F31303801A994143F4801304D2641E46
:101840004000494180185941C90241EA5051B1FB59
:10185000F3F603FB1611A2FB0675D7EBC020A941D6
:1018600002D2761E80185941C90241EA5051B1FB9B
:10187000F3FE03FB1E11A2FB0E75D7EBC020A9419E
:1018800003D2AEF1010E80185941890241EA90510C
:10189000760546EA8E2EB1FBF3F603FB1611A2FB8A
:1018A0000675D7EB8020A94102D2761E80185941D7
:1018B000C90241EA50514EEA060EB1FBF3F603FBB2
:1018C0001611A2FB0675D7EBC020A94102D2761EE5
:1018D00080185941C90241EA5051B1FBF3F703FBAB
:1018E0001711A2FB0735D3EBC020A94167F1000710
:1018F0000CBF004247F0010766F3D5274FEA1E31BF
:10190000B80814F5806412DDBD0775F1004250EB94
:101910000E5051EB045111F5801F5CBF41EA0C01E0
:10192000F0BD4CF07F6141F0E0410020F0BDBD070B
:101930006D0840EA0E5041F48011D4F10104B4F175
:1019400020060ADAC4F120060200E04001FA06F39C
:10195000E1401843B24015430EE0342C13DCC6F1CD
:10196000200445EA40056D0820FA06F2154321FAE5
:1019700006F0A1400D43002175F1004250F1000036
:1019800051EB0C01F0BD00205FEA0C01F0BDCFB9B6
:1019900092185B41B3FA83F704BFB2FA82F6BF191B
:1019A0000B3FB7F120062FBF02FA06F3BB40C7F189
:1019B000200622FA06F638BF3343BA401CB1E419B8
:1019C000641E33E77F4231F00041B1FA81F404BF75
:1019D000B0FA80F6A4190B3CB4F120062FBF00FA30
:1019E00006F1A140C4F1200620FA06F638BF3143C3
:1019F000A0403C1B1AE7AC421ABF05EA1357AF429E
:101A000012E050EA41061CBF52EA4306BFE750EA23
:101A10004107304661461CBF41EA0551F0BD52EA1C
:101A2000430C08BFC143F0BD00204FF4001616EB75
:101A3000410F98BF16EB430F08BF16EB410F24BFB1
:101A4000C14305E016EB430F0CBF61464CEA05515C
:101A5000F0BD0000400D491840EA81200CD2490D2C
:101A6000A1F58061491C40F0004005DBD1F11F0168
:101A700054BFC840C017704700207047014648B1A6
:101A8000B0FA80F18840C91CC1F58461090501EBF9
:101A9000D021400570470000B0B581EA030C0CF07E
:101AA000004C40F2FF7515EA11541DBF15EA13579B
:101AB000AC42AF4239E0E41923EA455343F48013C2
:101AC000C90241F0004141EA505EC7021100A7FB84
:101AD000020200284FF00000EEFB01204FF0000151
:101AE000E3FB072118BF42F00102401800214941E1
:101AF000E3FB0E01A4F580640F0302D252004041C3
:101B0000494154F101046CDD470872F1004250F183
:101B1000000051EB0451A1F580115CBF41EA0C01BA
:101B2000B0BD4CEA05510020B0BD05EA1357AC42E8
:101B300014BFAF4241E050EA410E1CBF52EA430ECF
:101B400002E061460020B0BD24423C441BD15FEA64
:101B5000070EF6D0090302BF01460020AEF1140EB5
:101B6000B1FA81F7AEEB070401FA07FE0C37C7F1B3
:101B7000200100FA07F7C8404EEA000E23EA455359
:101B800043F48013A2E733F00043B3FA83F704BFB2
:101B9000B2FA82FE77440B3FE41BB7F1200E2FBF51
:101BA00002FA0EF3BB40C7F1200E22FA0EFE38BF38
:101BB00043EA0E03BA40641C82E750EA410E14BFA8
:101BC00052EA430E6FF000014FF4001717EB430F7A
:101BD0008ABF194617EB410FB5E74CEA05510020C3
:101BE000B0BDD4F10104B4F120070FDAC4F120072D
:101BF000520828BF42F0010210FA07F501FA07F770
:101C0000E1BF2A43E0403843E1400FE0352C98DC47
:101C1000C7F1200452EA400220FA07F218BF42F04E
:101C2000010231FA07F0A1400A43002172F100429B
:101C300050F1000051EB0C01B0BD80B5FFF726FB61
:101C4000006C02BDBBBBE1B1B2F5803F80F07E808D
:101C5000022A1ED98C46B1FBF2F102FB11C31B0410
:101C600043EA1043B3FBF2FC02FB1C3380B240EAB0
:101C70000343B3FBF2F002FB103240EA0C400023B6
:101C80007047022A05D98446B0FBF2F002FB10C26D
:101C900070474AB105D100F0010249085FEA3000FF
:101CA000704700220023704700F09EB90B0002002D
:101CB000002100207047904271EB030CF6D3B3F57E
:101CC000803F2FD2F0B5B3FA83F7B1FA81F4A7F1D0
:101CD0000F0E3D1B5340CEF1200602FA0EF2F341E7
:101CE0005340B5F10F0746D80F3C2C444140C4F196
:101CF0002006A040F1414140B1FBF3F603FB161171
:101D0000A2FB0645001BA94102D2761E801859414C
:101D100080EA010221FA0EF362FA0EF200215A4023
:101D20003046F0BD30B4B1FBF3FC03FB1C11A2FB49
:101D30000C45001BA94103D2ACF1010C801859419C
:101D400030BC02460B46604600217047B2F1807FEE
:101D500065D3F0B5B2FA82F7B1FA81F4C7F10F0694
:101D60003D1B22FA06F307F1110EF24120355A40CD
:101D7000B5F10F07B8D94140C4F12006A040F141A8
:101D80004140B1FBF3FC03FB1C11A2FB0C45001B03
:101D9000A94103D2BCF1010C801859410F2F12D375
:101DA0000F3FC90341EA5041B1FBF3F603FB1611A3
:101DB000A2FB0645D4EBC030A94102D2761E8018A2
:101DC000594146EACC3C07B34140C7F12006B84030
:101DD000F1414140B1FBF3F603FB1611A2FB0645AE
:101DE000001BA94102D2761E8018594180EA0102E7
:101DF00021FA0EF3C7F1200462FA0EF20CFA07F092
:101E00005A402CFA04F13043F0BD80EA010221FA75
:101E10000EF3002162FA0EF260465A40F0BD8C4685
:101E2000B1FBF2F102FB11C31B0243EA1063B3FBE7
:101E3000F2FC02FB1C331B024CEA002043EA106355
:101E4000B3FBF2FC02FB1C331B024CEA002043EA0A
:101E50001063B3FBF2FC02FB1C331B024CEA0020B4
:101E600043EA1063B3FBF2FC02FB1C324CEA002095
:101E700000237047012000F0B9B80000841A71EB0C
:101E8000030604D26E40001BB141121973414FF496
:101E9000001C1CEB410F34BF7CEB430683E00C0DB0
:101EA000A4EB1356362E00F37C80012E45EAC323A3
:101EB00041DC43EA525312BFD20292025B0824056E
:101EC00045EAC12141EA5051D2EBC020994125D4C5
:101ED00007D1B0FA80F610FA06F162D00020203661
:101EE00008E0B1FA81F6B140C6F1200220FA02F210
:101EF0001143B0404FEAF474B4EB465434F0010699
:101F00004FEA74040AD8D6F50016760D04F00044A2
:101F1000F04061FA06F25040F1404840C00A40EA01
:101F2000415021F0004128BF5FEA500550F1000008
:101F300044EBD12135E0DB0A45EAC121C90AB6F1FB
:101F400020050EDD42EA0242120CC5F1200603FA1A
:101F500006F6EB4042EA06056D42984161F1000148
:101F60000DE062FA06F5F240554063FA06FC82EA9B
:101F70000C02F3405A406D42904161EB030111F4B1
:101F8000801F05D1641E620502D06D0040414941A9
:101F900021F48011430875F1004350F1000041EB3A
:101FA000045170BC70471CEB410F15D223F0004365
:101FB00052EA43060BD04FEA4C0CBCEB410F04D85D
:101FC0000C0D661E342EB7DDEBE7801A994150EAFE
:101FD000410608BF0021E4E708BF1CEB430F28BF00
:101FE0006FF00001DDE700007047000080B5AFF33F
:101FF0000080024A11001820ABBEFBE72600020059
:1020000030B5B1B0DFF8A04621683091DFF89C56BA
:10201000E8669622012105F1700000F0A5FC002879
:1020200007D10522662105F1800000F09DFC002803
:1020300001D000207BE0E86E01680A8B42F00802C4
:102040000A8301680A6A42F47F4242F0FF020A6290
:1020500001688A6842F001028A600068016841F004
:102060002001016005F1900000F08DF8642000F07F
:10207000E3FC012000F02FFA322000F0DDFC00BF6D
:102080002FA0019031A0009033A3002211460846F2
:1020900000F038F9322000F0CFFC322000F0CCFC08
:1020A00000208DF8260005E003A800F0BBF86420AE
:1020B00000F0C2FC9DF826000028F5D00228F3D0DD
:1020C000322000F0B9FC002000F088F8322000F047
:1020D000B3FC00F0CFF8322000F0AEFC00F0EEF8D8
:1020E000322000F0A9FC02A9062000F015FA3220E7
:1020F00000F0A2FC002201219DF8080000F03AFA4D
:10210000322000F099FC42F2B322A96E9DF808003B
:1021100000F050FA322000F08FFC0AA8DFF8A81671
:102120009822FFF787F90AA800F064FA0120309995
:102130002268914201D000F093FC31B030BD000024
:10214000707269766174656B65790000707269768A
:102150006174656361000000726F6F7463610000F9
:1021600080B5002210214FF0904000F0A5FE4FF402
:102170007A7000F061FC012210214FF09040BDE820
:10218000084000F099BE18B59BB0DFF81C452068E8
:102190001A900FF2486000F02DFA010013D14FF4AD
:1021A0007A726946012000F055FA01000BD10FF256
:1021B000386000F09BFE0DF1010000F097FE06A0D4
:1021C00000F094FE00201A992268914201D000F09C
:1021D00047FC1CB010BD00000A00000018B59BB001
:1021E000DFF8C44420681A900FF2046000F002FA8D
:1021F00001000FD14FF47A726946012000F02AFAEB
:10220000010007D10DF1010000F070FEC1A000F047
:102210006DFE00201A992268914201D000F020FC46
:102220001CB010BD30B59BB00546DFF87C4420687B
:102230001A900FF2C85000F0DDF9010012D14FF4EE
:102240007A726946012000F005FA01000AD19DF872
:102250000A00A8760DF1010000F048FEADA000F0E4
:1022600045FE00201A992268914201D000F0F8FB47
:102270001BB030BD18B59BB0DFF82C4420681A9015
:102280000FF2845000F0B6F901000FD14FF47A72CA
:102290006946012000F0DEF9010007D10DF10100CF
:1022A00000F024FE9BA000F021FE00201A99226875
:1022B000914201D000F0D4FB1CB010BD18B59BB00A
:1022C000DFF8E44320681A900FF2485000F092F9CA
:1022D00001000FD14FF47A726946012000F0BAF97B
:1022E000010007D10DF1010000F000FE89A000F00F
:1022F000FDFD00201A992268914201D000F0B0FB48
:102300001CB010BD2DE9F847ADB082460D4616460B
:102310001F46DFF8944320682C903A460FF2005194
:10232000684600F0F7FD684600F064F9010040F0EF
:10233000C9804FF47A7212A9022000F08BF90100D3
:1023400040F0C080DDF8D880642000F075FB434683
:1023500042460FF2E841684600F0DCFD684600F0B6
:1023600049F9010040F0AE804FF47A7212A90220C0
:1023700000F070F9010040F0A580DDF8DC906420E9
:1023800000F05AFB4B464A460FF2CC41684600F03B
:10239000C1FD684600F02EF9010040F093804FF433
:1023A0007A7212A9022000F055F9010040F08A80EB
:1023B000642000F041FB52460FF2B8410DA800F036
:1023C000A9FD684600F016F901007BD14FF47A723E
:1023D00012A9022000F03EF9010073D1642000F040
:1023E0002BFB2B4652460FF2A041684600F092FDAF
:1023F000684600F0FFF8010064D14FF47A7212A928
:10240000022000F027F901005CD1642000F014FBE9
:10241000334652460FF28841684600F07BFD68461D
:1024200000F0E8F801004DD14FF47A7212A90220B1
:1024300000F010F9010045D1642000F0FDFA3B46A0
:1024400052460FF27441684600F064FD684600F0A1
:10245000D1F8010036D14FF47A7212A9022000F0AF
:10246000F9F801002ED1642000F0E6FA4346524606
:102470000FF25C41684600F04DFD684600F0BAF886
:1024800001001FD14FF47A7212A9022000F0E2F885
:10249000010017D1642000F0CFFA4B4652460FF2EC
:1024A0004841684600F036FD684600F0A3F8010098
:1024B00008D14FF47A7212A9022000F0CBF8010083
:1024C00000D100202C992268914201D000F0C8FA76
:1024D0002EB0BDE8F08710B5A2B00246DFF8C841C3
:1024E000206821900FF21841684600F013FD6846FD
:1024F00000F080F8010005D14FF47A7207A902209C
:1025000000F0A8F821992268914201D000F0A8FAC1
:1025100022B010BD0A00000070B5A0B006460D46FE
:10252000DFF8844120681F9068460FF2284114228A
:10253000FEF780FF32460FF2DC31684600F0EAFC1D
:10254000684600F057F801000CD14FF4FA6205A973
:10255000012000F07FF8010004D19DF81D00303803
:10256000287000201F992268914201D000F078FA6B
:1025700020B070BD18B5A1B00B464B4C216820911E
:10258000009202460FF29C3101A800F0C3FC01A8A2
:1025900000F030F8010005D14FF47A7206A902204C
:1025A00000F058F820992268914201D000F058FAC2
:1025B00022B010BD18B5ABB00B463B4C21682A9138
:1025C000009202460FF2743101A800F0A3FC01A8AA
:1025D00000F010F8010005D141F2883210A9012065
:1025E00000F038F82A992268914201D000F038FAB8
:1025F0002CB010BD2DE9F0410546FEF7BFFE0646A2
:10260000B6B22A4F07F1700000F008FA04001AD0A1
:102610004FF0010801E008F10108404680B2B042E5
:1026200008DA291807F1700000F0B4F90228F2D195
:1026300002200DE0F86E29780268118500680168B3
:1026400041F080010160002C01D0002000E0022058
:10265000BDE8F081F8B504460D4616465C4F384695
:1026600000F0DCF9002810D12946384600F0B4F912
:1026700000280AD195F8650001462246914202D110
:10268000297802290BDA03280BD0012000F0D4F9B5
:102690003046461E80B20028E1D10120F2BD002064
:1026A000F2BD0220F2BD0000000000201400002056
:1026B0007CB50546474C206801902868C26940F601
:1026C0000F010A4206D0016A41F47F4141F0FF0147
:1026D000016271E0910618D5818CC9B23B4E307809
:1026E000002852D10D2967D00A2965D0002963D06E
:1026F000412901D0612919D1002086F86500701C9C
:102700003378C1543078401C3070100654D5286896
:102710000068000650D569462F4800F05DF9002892
:1027200045D19DF800002968088545E02B2903D193
:10273000012086F86500E2E74F2901D06F2903D117
:10274000022086F86500DAE7452901D0652903D122
:10275000032086F86500D2E73E2912D1052086F8CD
:1027600065003E207070012030700020B0700220A3
:102770003070314606F1800000F00CF90020307016
:102780001AE0042086F86500B9E70D2901D00A296E
:10279000B5D10021721C11543078401C3070314684
:1027A00006F1800000F0F6F80020307004E02868A0
:1027B000016821F08001016001982168884201D000
:1027C00000F04EF973BD00008044000814000020A2
:1027D00094000020000000208400002061742B631E
:1027E0006369640D0A00000049434349443A2000EC
:1027F00061742B757261743F0D0A000061742B6364
:102800006F70733F0D0A000061742B637265673F40
:102810000D0A000061742B75636765643F0D0A0043
:1028200061742B757365636D6E673D312C302C229E
:102830002573222C222573220D0A000061742B754A
:102840007365636D6E673D312C312C222573222C0C
:10285000222573220D0A000061742B757365636D68
:102860006E673D312C322C222573222C22257322B7
:102870000D0A000061742B757365637072663D25E7
:10288000642C302C300D0A0061742B7573656370F5
:1028900072663D25642C312C25640D0A0000000071
:1028A00061742B757365637072663D25642C322CE0
:1028B00025640D0A0000000061742B757365637058
:1028C00072663D25642C332C222573220D0A0000EC
:1028D00061742B757365637072663D25642C352CAD
:1028E000222573220D0A000061742B7573656370D5
:1028F00072663D25642C362C222573220D0A0000B9
:1029000061742B7564636F6E663D312C25640D0A0E
:102910000000000061742B75736F63723D25640DB8
:102920000A00000061742B75736F7365633D256445
:102930002C25642C25640D0A0000000061742B75A1
:10294000736F636F3D25642C222573222C25640D43
:102950000A00000061742B75736F63723D00000004
:10296000000000000000000070B504460D46164649
:102970003046484300F0EEFA2060002801D10320E1
:1029800070BD6681A5810020A080E08001202072BA
:10299000002070BD38B504460D4600F041F800280F
:1029A00001D0022032BDA088411CA180A2892168EB
:1029B0001346584308442946FEF72CFDA088618938
:1029C000884201D10020A080A088E188884201D0FF
:1029D00000202072002032BD38B504460D4600F0BC
:1029E0001DF8002818D1E088411CE180A2892168E7
:1029F0001346584301442846FEF70CFDE0886189E0
:102A0000884201D10020E080E088A188884201D17D
:102A100001202072002032BD012032BD007A7047B3
:102A20008188C288914204D1007A401E8041C00F43
:102A3000704700207047000038B5044600F01CFBCA
:102A4000054614F1010F02D004488068041900F013
:102A500013FB401BA042FAD331BD00BF040000208D
:102A6000FEE7000018B585B000F00CFB00F039F867
:102A700000F0CCF800F094F800F0ACF8B8A000F04A
:102A800035FA002407E08021AC4800F01BFAFA2058
:102A9000FFF7D2FF641C2046C0B20428F3DB0022FB
:102AA0001421684600F0FEFA0220009001200190F7
:102AB000002002900320039069464FF0904000F000
:102AC00053F9002202214FF0904000F0F5F9FFF792
:102AD00047FB4FF4FA50FFF7AFFF9948FFF790FA22
:102AE000FEE710B5A4B0974C206823900022442143
:102AF00005A800F0D7FA00221421684600F0D2FAA7
:102B00000022342116A800F0CDFA4FF4007000F036
:102B1000EDFA002801D000F021F9122005904FF4C1
:102B2000807008904020099001200C9000200D90AA
:102B300060200E9002201090012011901290182019
:102B4000139002201490159005A800F007FB0028B0
:102B500001D000F003F90F20009003200190002025
:102B60000290039004900221684600F0B8FD00280E
:102B700001D000F0F3F803201690022017900820EF
:102B8000189016A800F0FCFE002801D000F0E6F82E
:102B900023982168884201D0FFF762FF24B010BD5E
:102BA00080B56948694901604FF4E1314160002115
:102BB0008160C16001610C21416100218161C161BD
:102BC0000162416200F0CCFF002802D0BDE8014064
:102BD000C4E001BD80B55A485D4901604FF4E13160
:102BE000416000218160C16001610C2141614FF4AD
:102BF000407181610021C1610162416200F0B0FF5A
:102C0000002802D0BDE80140A8E001BD78B587B03A
:102C10004C4C206806900022142101A800F042FAD2
:102C20004C48016841F004010160016801F00401B1
:102C300000910099016841F001010160016801F013
:102C4000010100910099016841F0020101600068F2
:102C500000F0020000900098384E00224FF460719E
:102C6000304600F029F901222421304600F024F9F1
:102C700000224FF480714FF0904000F01DF90122C6
:102C800030214FF0904000F017F9334D01221146EA
:102C9000284600F011F900224021284600F00CF9E6
:102CA0004FF469700190012002900020039004907D
:102CB00001A9304600F058F84FF4807001900120CF
:102CC000029000200390049001A94FF0904000F082
:102CD0004BF8402001900120029000200390022038
:102CE000049001A9284600F03FF81020019011201F
:102CF000029000200390049001A94FF0904000F052
:102D000033F801200190029000200390049001A963
:102D1000284600F029F840F6064001900020029075
:102D20000120039001A9284600F01EF806982168AA
:102D3000884201D0FFF794FE08B070BD000800483B
:102D40000C020020000000208C010020003801400F
:102D5000004400404C10024000040048FEE7000020
:102D600054657374696E6700F8B502460B4600241B
:102D700028E0072103E057498A42FAD10321B140F4
:102D8000294347F82C1054490E68C5432E405F680C
:102D9000FF0300D506430E604E682E405F68BF03F8
:102DA00000D506434E608E682E405F68FF0200D556
:102DB00006438E60CE682E405D68AD0200D50643A6
:102DC000CE60641C18680146E14074D00127A7401A
:102DD0003840F6D0610003258D40ED435E68012E3A
:102DE00005D0022E03D0112E01D0122E10D19668DC
:102DF0002E40D3F80CC00CFA01FC4CEA0606966093
:102E00005668BE435F68C7F30017A7403E4356604D
:102E1000D6682E409F688F403E43D6605E68022E83
:102E200001D0122E15D12646F60802EB86073E6A1F
:102E30004FEA840C0CF01C0C4FF00F0E0EFA0CFE37
:102E400026EA0E06D3F810E00EFA0CFC4CEA060651
:102E50003E6216682E401D7905F0030505FA01F162
:102E60000E4316605968C900ABD51C490D6845F082
:102E700001050D60096801F0010100910099A44667
:102E80004FEA9C0C164F57F82C50A60006F00C0683
:102E90000F21B1408D43B2F1904F01D100216EE777
:102EA00010498A4201D1012169E70F498A427FF422
:102EB00062AF022163E7F1BD002A01D08161704752
:102EC0008162704742690A4201D081627047816124
:102ED00070470000000C00480004014060100240F0
:102EE0000800014000040048000800480EB4C0B5C6
:102EF000024603A800210190009101AB0121044882
:102F000078440C30FDF742F906BC5DF810FB00BFB9
:102F1000AF1800000CB430B583B00A4606A9029180
:102F2000044600250194009502AB01A908487844A5
:102F30001E30FDF72BF9019A157000284EBF04468C
:102F40000198041B204603B030BC5DF80CFB00BFA9
:102F500063E4FFFF10B50446AFF30080204600F0A5
:102F600005F80446AFF30080204610BDF8B500F127
:102F70000F04E408E400A0422BD2082C04D2082459
:102F800002E0083000F03CF8DFF8E8201368190090
:102F900005D1002007E00568A5420DD2011D086893
:102FA0000028F8D11868111D00E0191D0B68834234
:102FB0000BD01D68A542F8D359B10B6818680838C2
:102FC000A04208D2586808600FE001F0D5F8002848
:102FD000D7D10020F2BD181908601D1D586828516E
:102FE0001E680F68361B3E601C60096800291DBF03
:102FF00048680028081D0020106003F10800F2BD99
:10300000002800D1704770B4A0F108021368072BA4
:103010002ED913F0070F2BD1DFF85840616809B1A2
:103020008A4203D25160626015E00146486808B1E7
:103030009042FAD308680E18B24219D3964203D1CF
:103040001B180B600A4606E0486810B1134498420A
:103050000ED350604A60506850B11368D51885424D
:1030600006D1002626600168CB18136040685060C6
:1030700070BC7047F002002001480068704700BF34
:103080000400002010B50024032001F0E4F82046DD
:1030900001F000F9002801D0012401E001F022F93B
:1030A000204610BD62F30F2262F31F4200B500BF3D
:1030B000130096469446103928BFA0E80C50FAD861
:1030C0005FEA417C28BF0CC048BF40F8042BC90709
:1030D00028BF20F8022B48BF00F8012B00BD0000DC
:1030E000DFF86C00006800F4C0607047DFF8601023
:1030F000B0F5007F086800F4C0601ED1B0F5007F15
:1031000024D0086820F4C06040F400700860DFF844
:103110004400026832204243DFF83C00B2FBF0F08A
:10312000401C00E0401E4A69520501D50028F9D133
:10313000486940050AD503207047B0F5806F05D077
:10314000086820F4C06040F4806008600020704788
:10315000007000401000002040420F002DE9FC47A5
:10316000050000F0A580DFF8DC77BC6804F00C04F3
:10317000D7F80C8008F00308DFF8D8672878C00675
:1031800040F18680002C04D00C2C5BD1B8F1010FEB
:1031900058D13868800703D5E869002800F0888096
:1031A0003868000703D5396801F0F00103E0716861
:1031B000090901F0F001686A814215D200F084FB30
:1031C000002875D1386840F008003860396821F06F
:1031D000F001686A01433960786820F47F40296A09
:1031E00040EA0120786017E0386840F00800386055
:1031F000396821F0F001686A01433960786820F489
:103200007F40296A40EA01207860002C04D1686A76
:1032100000F05AFB00284BD100F0EFFADFF8381726
:10322000BA68C2F30312895C01F01F01C840DFF8DD
:1032300018170860DFF81407006801F02BF8010088
:1032400026D04AE2E8690028386833D040F001000F
:103250003860FFF711FF81463868800707D4FFF711
:103260000BFFA0EB09000328F6D3032035E23868F2
:1032700040F008003860386820F0F000696A0843C0
:103280003860786820F47F40296A40EA012078603D
:103290002878C00757D5082C04D00C2C1AD1B8F1C7
:1032A000030F17D1386880034DD5686800284AD1CC
:1032B000012012E2400840003860FFF7DDFE814641
:1032C00038688007E4D5FFF7D7FEA0EB0900032894
:1032D000F6D3CAE76868B0F5803F04D1386840F497
:1032E0008030386012E0B0F5A02F386807D140F484
:1032F00080203860386840F48030386006E020F480
:1033000080303860386820F4802038606868002891
:103310000CD0FFF7B1FE81463868800313D4FFF765
:10332000ABFEA0EB09006528F6D39EE7FFF7A4FEED
:1033300081463868800306D5FFF79EFEA0EB0900A2
:103340006528F6D391E72878800713D5042C04D09C
:103350000C2C32D1B8F1020F2FD13868400502D5BC
:10336000E8680028A4D0786820F0FE40296940EA87
:10337000016078602878000772D568690028706855
:103380005ED0A96900F01002914248D000F003011C
:1033900002298DD0C0073CD570684008400070609D
:1033A000FFF76AFE80467068800732D5FFF764FE3B
:1033B000A0EB08001228F6D357E7E8680028386821
:1033C00017D040F480703860FFF756FE80463868AA
:1033D000400506D4FFF750FEA0EB08000328F6D303
:1033E00043E7786820F0FE40296940EA0160786090
:1033F000C0E720F480703860FFF73EFE80463868F2
:103400004005B7D5FFF738FEA0EB08000328F6D338
:103410002BE7716821F01001A869014371607068A1
:1034200040F001007060FFF727FE8046706880075B
:1034300016D4FFF721FEA0EB08001228F6D314E7FC
:10344000400840007060FFF717FE804670688007F4
:1034500006D5FFF711FEA0EB08001228F6D304E70B
:103460002878400777D54FF00008B86DC0000AD41F
:10347000B86D40F08050B865B86D00F08050009095
:1034800000984FF00108DFF8D494D9F80000C00587
:1034900013D4D9F8000040F48070C9F80000FFF799
:1034A000EBFD8246D9F80000C00506D4FFF7E4FD25
:1034B000A0EB0A000328F5D3D7E6A868C10716D504
:1034C000316821F0800100F0800008433060287AE4
:1034D0004007306807D540F004003060306840F0A5
:1034E000010030600BE040F00100306007E0306820
:1034F000400840003060306820F004003060A86868
:1035000000280ED0FFF7B8FD8146306880071BD435
:10351000FFF7B2FDA0EB090041F289318842F4D3F4
:10352000A3E6FFF7A9FD81463068800708D5FFF7BD
:10353000A3FDA0EB090041F289318842F4D394E65F
:10354000306820F080003060B8F1010F03D1B86D11
:1035500020F08050B8652878800623D5A86A002816
:10356000B0680FD040F00100B060FFF785FD8046E5
:10357000B068800716D4FFF77FFDA0EB0800032892
:10358000F6D372E640084000B060FFF775FD804654
:10359000B068800706D5FFF76FFDA0EB0800032891
:1035A000F6D362E6E86A002800F09680022878D117
:1035B000F86800F003012A6B91421CD100F0700101
:1035C0006A6B521EB1EB021F15D100F4FE41AA6BCB
:1035D000B1EB022F0FD100F4C001EA6B5208521E6A
:1035E000B1EB425F07D100F0C060296C4908491E69
:1035F000B0EB416F3ED00C2C3FF45AAE386820F04F
:1036000080703860FFF738FD04463868800105D5C2
:10361000FFF732FD001B0328F7D326E6F868DFF832
:1036200040130840296B0843696B491E40EA0110AA
:10363000A96B40EA0120E96B4908491E40EA415064
:10364000296C4908491E40EA4160F860386840F03A
:1036500080703860F86840F08070F860FFF70CFD0B
:1036600004463868800137D4FFF706FD001B0328A5
:10367000F7D3FAE5386880012ED4386840F08070BE
:103680003860F86840F08070F860FFF7F5FC044699
:103690003868800120D4FFF7EFFC001B0328F7D324
:1036A000E3E50C2C3FF404AE386820F080703860FD
:1036B000F86880088000F860F86820F08870F8608A
:1036C000FFF7DAFC04463868800105D5FFF7D4FC23
:1036D000001B0328F7D3C8E50020BDE8F6872DE9D5
:1036E000F04104460F46002C5BD0DFF8786230686A
:1036F00000F00700B84209D23068C00857EAC0009D
:103700003060306800F00700B8424AD1DFF8345228
:103710002078C0072DD56068032803D12968890166
:103720000ED43EE0022803D12968890308D438E08A
:103730000028296802D1890702D432E0490530D532
:10374000A968890850EA8100A860FFF795FC8046C7
:10375000A86800F00C006168B0EB810F09D0FFF79A
:103760008BFCA0EB080041F289318842F0D30320A2
:1037700041E02078800705D5A96821F0F001A06814
:103780000143A960306800F0070087420BD230681F
:10379000C00857EAC0003060306800F00700B84247
:1037A00001D0012027E02078400705D5A96821F441
:1037B000E061E0680143A9602078000706D5A868A9
:1037C00020F46050216940EAC100A86000F015F8BB
:1037D000DFF88411AA68C2F30312895C01F01F01AB
:1037E000C840DFF864110860DFF860010068BDE8D8
:1037F000F04100F04FBDBDE8F08110B40023194640
:10380000504A906800F00C00D46804F003040028CB
:1038100003D00C2813D1012C11D113681B0704D439
:103820004B4B1B68C3F3032302E01368C3F303137A
:103830004E4C54F82330002808D1194606E00428DD
:1038400001D14B4902E0082800D14A490C281BD17C
:10385000D06800F00300022802D0032802D002E062
:10386000434B00E0434BD068C0F30211491CD068C1
:10387000C0F306204343B3FBF1F0D168C1F34161CB
:10388000491C4900B0FBF1F1084610BC70472E48B6
:103890000068704780B5FFF7FAFF3749324A12686F
:1038A000C2F30222895C01F01F01C84002BD80B54D
:1038B000FFF7EDFF30492C4A1268C2F3C222895C3F
:1038C00001F01F01C84002BD7CB5054600242B4E07
:1038D0003068C00002D5FFF703FC0EE0306840F00E
:1038E00080503060306800F0805000900098FFF702
:1038F000F7FB316821F080513160B0F5007F07D1CE
:10390000802D0FD9A12D01D302240BE0012409E061
:10391000802D01D9032405E001D1022402E0702D9D
:1039200000D101240F480168C90854EAC1010160AF
:10393000006800F00700A04201D0012076BD002001
:1039400076BD00000010024010000020080000209A
:103950009410024090100240484600080070004059
:103960008C809FF900200240081002408C4600081D
:103970000024F40000127A00FC47000858100240AE
:103980002DE9FC47054600242646DFF8C871286863
:10399000800369D5A046F86CC0000AD4F86C40F0EA
:1039A0008050F864F86C00F08050009000984FF060
:1039B0000108DFF8A491D9F8000040F48070C9F83C
:1039C0000000FFF759FB8246D9F80000C00506D475
:1039D000FFF752FBA0EB0A000328F5D303242000D5
:1039E0003AD1DFF87891D9F8000010F4407014D083
:1039F000296B884211D0D9F8000020F44070D9F822
:103A0000001041F48031C9F80010D9F8001021F4F9
:103A10008031C9F80010C9F80000C0070FD5FFF7C2
:103A20002BFB8246D9F80000800708D4FFF724FB5F
:103A3000A0EB0A0041F289318842F3D3032420002D
:103A400008D1D9F8001021F44071286B0143C9F85E
:103A5000001002E0264600E02646B8F1010F03D12F
:103A6000F86C20F08050F8642878C00705D5F96F0D
:103A70008908686850EA8101F9672878800705D5C8
:103A8000F96F21F00C01A8680143F9672878400715
:103A900005D5F96F21F03001E8680143F96728780E
:103AA000800605D5F96F21F4406128690143F96763
:103AB0002868800505D5F96F21F44021286A014363
:103AC000F9672868400505D5F96F21F44011686A47
:103AD0000143F9672878400605D5F96F21F4405174
:103AE00068690143F9672878000605D5F96F21F464
:103AF0004041A8690143F9672868C00505D5F96FF9
:103B000021F44031E8690143F967286880040DD544
:103B1000F96F21F04061A86A0143F967A86AB0F122
:103B2000006F03D1386840F4801038602868400383
:103B30000DD5F96F21F04061E86A0143F967E86A41
:103B4000B0F1006F03D1386840F48010386030461F
:103B5000BDE8F6870C100240007000409010024053
:103B600038B5040015D004F170056868002804D148
:103B700000202870204600F0CBFB242068602068DD
:103B80000168490849000160204600F08BF80128CF
:103B900001D1012032BD606A002802D0204600F029
:103BA00005FA2068416821F49041416020688168ED
:103BB00021F02A0181602068016841F00101016063
:103BC0002046BDE8324000F055BA2DE9FC470546D5
:103BD0000C4692461E4605F17008D8F804002028CD
:103BE0005CD1002C02D05046002801D1012056E0C3
:103BF00098F80000012851D0012088F8000000202A
:103C0000C8F80C002120C8F80400FFF735FA074671
:103C100005F15009A9F800A0A9F802A0A868B0F51C
:103C2000805F05D12869002802D10020A24602E069
:103C300020464FF0000A002188F80010044610E0EA
:103C400014F8011B018507E02868002CF8D13AF828
:103C5000021BC1F308010185B9F80200401EA9F852
:103C60000200B9F80200002800963B4608D0002266
:103C70008021284600F02FFA0028E5D003200EE02E
:103C800000224021284600F026FA002801D0032017
:103C900005E02020C8F80400002000E00220BDE874
:103CA000F6870000F8B50446002635462846226807
:103CB0001368DFF8D4120B40A1680B4321690B4352
:103CC00061690B43E1690B4313602268536823F475
:103CD0004053E1680B435360A3692768A94A9742A0
:103CE00001D0216A0B43B96821F430610B43BB60FA
:103CF0002168A64B99420BD1A54B1B6803F0030327
:103D0000032B13D8DFE803F00246314801270EE009
:103D1000A04B99421AD19E4B1B6813F00C0337D06D
:103D2000042B37D0082B20D00C2B35D010279142F4
:103D300040F09380390006D002292FD004292FD0DB
:103D4000082930D032E0FFF7A5FD30E0924B9942D0
:103D50000DD18F4B1B6813F0300319D0102B19D0E5
:103D6000202B02D0302B17D0E0E70227DFE791426B
:103D7000DCD1874B1B6813F4406309D0B3F5806F27
:103D800008D0B3F5006FF0D0B3F5406F04D0CDE7A5
:103D90000746CCE70427CAE70827C8E77F4806E0BC
:103DA000FFF72BFD03E04FF4004000E00125002861
:103DB00000F0E280626802EB4201884202D3110304
:103DC000814201D20125D7E0002F06D0022F15D065
:103DD000042F1FD0082F2ED034E0FFF75BFD626860
:103DE000314641EA106116467608002716EB00209E
:103DF00079413B46FDF726FF064624E01046314652
:103E0000674E0F4616EB500079413B46FDF71AFF0F
:103E1000064618E0FFF7F1FC6268314641EA10619E
:103E200016467608002716EB002079413B46FDF741
:103E300009FF064607E01046400800F50000B0FB09
:103E4000F2F600E00125A6F540705649884202D2FC
:103E50002068C66090E001258EE0E069B0F5004F73
:103E60004AD1082F38D8DFE807F005101B37233771
:103E700037372E00FFF70EFD61680A46520802EB45
:103E80004002B2FBF1F6B6B227E0FFF710FD616821
:103E90000A46520802EB4002B2FBF1F6B6B21CE051
:103EA0006068414901EB5001B1FBF0F6B6B214E095
:103EB000FFF7A3FC61680A46520802EB4002B2FB1E
:103EC000F1F6B6B209E060680146490801F58031B3
:103ED000B1FBF0F6B6B200E001254FF6F071A6F1A5
:103EE0001000884206D23140C6F3420001432068E8
:103EF000C16041E001253FE0082F32D8DFE807F03C
:103F0000050E17311F3131312800FFF7C3FC6168FE
:103F100000EB5100B0FBF1F6B6B223E0FFF7C7FCAF
:103F2000616800EB5100B0FBF1F6B6B21AE06068D0
:103F30001A4901EB5001B1FBF0F6B6B212E0FFF7FF
:103F40005CFC616800EB5100B0FBF1F6B6B209E031
:103F500060680146490801F50041B1FBF0F6B6B2D0
:103F600000E00125A6F110004FF6F071884202D260
:103F70002068C66000E001250020206660662846B3
:103F8000F2BD000000800040F369FFEF00380140FF
:103F90008810024000440040004800400024F40023
:103FA000000024F400FD0F000048E80190F8241000
:103FB000C90706D50268536823F40033816A0B43AE
:103FC000536090F82410890706D50268536823F4DB
:103FD0008033C16A0B43536090F82410490706D51B
:103FE0000268536823F48023016B0B43536090F8FD
:103FF0002410090706D50268536823F40043416B77
:104000000B43536090F82410C90606D502689368E4
:1040100023F48053816B0B43936090F8241089063E
:1040200006D50268936823F40053C16B0B43936079
:1040300090F82410490611D50268536823F48013C0
:10404000016C0B435360016CB1F5801F06D102680F
:10405000536823F4C003416C0B43536090F8241061
:10406000090606D501684A6822F40022806C0243E2
:104070004A6070477CB5044604F170050020E86092
:10408000FEF7FAFF06462068006800070BD56FF0C0
:104090007E400090334600224FF40011204600F08D
:1040A0001AF800280FD12068006840070DD56FF07E
:1040B0007E400090334600224FF48001204600F0FD
:1040C0000AF8002801D0032076BD20206860A8608F
:1040D0000020287076BD2DE9F04105460E461746B2
:1040E0009846069C2868C0693040B04201D1012042
:1040F00000E00020394688423CD114F1010FF1D094
:10410000FEF7BAFFA0EB0800844201D3002C13D1C4
:104110002868016821F4D071016028688168490825
:104120004900816005F1700020214160816000211B
:1041300001700320BDE8F081286801684907D1D5E6
:10414000C1690905CED54FF4006101622868016894
:1041500021F4D071016028688168490849008160B4
:1041600005F17000202141608160C1600021017073
:104170000320DFE70020DDE70749086808B10020D9
:1041800070470648C008C00008600549C908C90052
:10419000091A0160704700BFF802002007070020DD
:1041A000000B0020354A13684FF6FF010B40000258
:1041B00000F4E060184332490843106070472F480C
:1041C0000068C0F302207047010007D4012200F00C
:1041D0001F018A402B49400941F8202070470901FE
:1041E000020002D4284881547047284802F00F0288
:1041F000104400F8041C704710B400F00700C0F130
:104200000703052B00D30423041D072C01D2002033
:1042100000E0C01E012404FA03F35B1E1940814034
:1042200004FA00F0401E1040084310BC704710B55F
:10423000401EB0F1807F01D3012010BD144C60609E
:104240000F214FF0FF30FFF7CAFF0020A0600720CA
:104250002060002010BDA5E770B504460D46164647
:10426000FFF7ADFF32462946FFF7C6FF014620465D
:10427000BDE87040B3E7A7E7D9E700000CED00E028
:104280000000FA0500E100E000E400E018ED00E0C5
:1042900010E000E070B504460025104EB06800281C
:1042A00019D04FF47A71B1FBF0F00D490968B1FBF8
:1042B000F0F0FFF7E1FF00280BD1102C07D22A46BF
:1042C00021464FF0FF30FFF7C7FF746004E001257F
:1042D00002E0012500E00125284670BD0400002011
:1042E0001000002081B04248816841F001018160E6
:1042F000816801F0010100910099016841F080514D
:104300000160006800F080500090009801B0704794
:1043100030B587B00546374C20680690142200213E
:1043200001A800F06FF82868334988422BD1334840
:10433000416941F480414161416901F4804100914A
:104340000099016841F001010160006800F001007E
:10435000009000984FF4C06001900220029000206D
:104360000390032004900720059001A94FF090408E
:10437000FEF7FAFC012200212520FFF76DFF252022
:10438000FFF779FF2CE01E49884229D11B48C168FC
:1043900041F40031C160C16801F40031009100991D
:1043A000016841F001010160006800F00100009027
:1043B00000980E200190022002900020039003201C
:1043C00004900720059001A94FF09040FEF7CCFC27
:1043D000012200212620FFF73FFF2620FFF74BFF99
:1043E00006982168884201D0FEF73AFB07B030BD3D
:1043F0005810024000000020003801404C100240DC
:104400000044004010B5044610460A4601462046C6
:1044100000F002F8204610BD62F30F2262F31F4243
:10442000401810F0030308D0C91A1FD3DB0748BF98
:1044300000F8012D28BF20F8022D130030B41446D7
:104440001546103928BF20E93C00FAD8490728BF93
:1044500020E90C0048BF40F8042D890028BF20F84F
:10446000022D48BF00F8012D30BC7047C91818BF95
:1044700000F8012DCB0728BF00F8012D7047000080
:1044800041542B55534F57523D302C33322C22334D
:1044900030314530303039373436353733373432D0
:1044A00046363436313734363533323330333233BF
:1044B00030324433313331324433323333353433B1
:1044C00032333033413334333633413332333522B0
:1044D0000D0A0000000000000000000000000000C5
:1044E00000000000000000000000000000000000CC
:1044F00000000000000000000000000000000000BC
:1045000000000000000000000000000000000000AB
:104510000000000000000000F0B40246106895683A
:104520001318506803EB5004C0071CD54D441AE023
:1045300013F8017B05F8017B491EF9D198B113F8F6
:10454000011BC6F38106032E08BF13F8016B01EBB4
:1045500006214942801C294405D011F8016B05F859
:10456000016B401EF9D1A3420ED013F8016B16F077
:10457000030104BF13F8011BC91C30090F28DBD14C
:1045800013F8010B0F30D7E7F0BC02F10C007047B5
:104590003EB50546174C206801902868C16940F671
:1045A0000F02114206D0016A41F47F4141F0FF0140
:1045B000016217E08A0600D5828C090612D50068D0
:1045C00000060FD569460C48FEF706FA002804D10C
:1045D0009DF800002968088504E02868016821F03A
:1045E0008001016001982168884201D0FEF738FA05
:1045F00037BD000000000020E00200200E480168E6
:1046000041F4700101600D49086840F00100086044
:10461000002088600A680A4802400A604FF480500F
:10462000C860086820F480200860002088614FF08E
:10463000006004490860704788ED00E00010024007
:10464000FFFFF6EA08ED00E00000000000000000B7
:1046500001020304060708091CB50090094C2068F4
:1046600001904FF6FF73012269460748FFF7ADFA44
:1046700001982168884201D1009816BDFEF7F0F933
:1046800000BF0000000000208C010020A086010077
:10469000400D0300801A060000350C0040420F0058
:1046A00080841E0000093D0000127A000024F400FE
:1046B00000366E010048E801006CDC0261326630B1
:1046C000646A7631783033706C782E696F742E7529
:1046D000732D776573742D322E616D617A6F6E6103
:1046E00077732E636F6D00007047FEE7FEE7FEE70D
:1046F000FEE770477047704700F00AB80248FFF7BE
:1047000047BF0248FDF7D4BF8C0100200C020020F7
:1047100002490A68886882180A607047040000200D
:1047200010B5074979441831064C7C44163404E02E
:104730000A68081D114488470146A142F8D110BDFE
:104740002C000000480000004EF68851CEF2000117
:10475000086840F470000860BFF34F8FBFF36F8F9D
:104760004FF00070E1EE100A70470000E7CAFFFF4B
:10477000740100008C010020000000009DFDFFFF7F
:1047800060010000BE0000000000002000F00DF8F5
:10479000002801D0FFF7C4FFAFF300800020AFF383
:1047A0000080FEF75FF900F002F80120704700F08A
:1047B00001B8000007463846FDF718FCFBE738B59E
:1047C00004460D46284600F005F8A84218BF00240C
:1047D000204632BD0149FFF73FBF00BF4401002022
:1047E0000148804701480047FD450008F14700089F
:1047F000AFF30080FFF7A8FFFFF7C8FF000000003D
:1048000001020304FFF7FEBFFFF7FEBFFFF7FEBF85
:10481000FFF7FEBFFFF7FEBFFFF7FEBFFFF7FEBFCC
:10482000FFF7FEBFFFF7FEBFFFF7FEBFFFF7FEBFBC
:10483000FFF7FEBFFFF7FEBFFFF7FEBFFFF7FEBFAC
:10484000FFF7FEBFFFF7FEBFFFF7FEBFFFF7FEBF9C
:10485000FFF7FEBFFFF7FEBFFFF7FEBFFFF7FEBF8C
:10486000FFF7FEBFFFF7FEBFFFF7FEBFFFF7FEBF7C
:10487000FFF7FEBFFFF7FEBFFFF7FEBFFFF7FEBF6C
:10488000FFF7FEBFFFF7FEBFFFF7FEBFFFF7FEBF5C
:10489000FFF7FEBFFFF7FEBFFFF7FEBFFFF7FEBF4C
:1048A000FFF7FEBFFFF7FEBFFFF7FEBFFFF7FEBF3C
:1048B000FFF7FEBFFFF7FEBFFFF7FEBFFFF7FEBF2C
:1048C000FFF7FEBFFFF7FEBFFFF7FEBFFFF7FEBF1C
:1048D000FFF7FEBFFFF7FEBFFFF7FEBFFFF7FEBF0C
:1048E00043EE000112100822010CF00157093D00AF
:1048F00001F00233BC4600086DF002078A1500087B
:104900000452FF01E3BA1414100100005A0C21F400
:10491000F00217C400002088433113B4431F133C36
:1049200021011007020401018C020020DC04528CDA
:0F49300004211B6108F004118801002074016448
:04000005080047F1B7
:00000001FF
