:020000040800F2
:1000000000A0002089B500088D9000088F9000089E
:10001000919000089390000895900008000000005F
:1000200000000000000000000000000097900008A1
:1000300099900008000000009B9000089D90000827
:10004000D9B50008D9B50008D9B50008D9B5000858
:10005000D9B50008D9B50008D9B50008D9B5000848
:10006000D9B50008D9B50008D9B50008D9B5000838
:10007000D9B50008D9B50008D9B50008D9B5000828
:10008000D9B50008D9B50008D9B5000800000000AE
:10009000000000000000000000000000D9B50008CA
:1000A000D9B50008D9B50008D9B50008D9B50008F8
:1000B000D9B500080000000000000000D9B5000814
:1000C000D9B50008D9B50008D9B50008D9B50008D8
:1000D000D9B50008A5900008DD900008D9B5000842
:1000E000D9B50008D9B500080000000000000000E4
:1000F0000000000000000000000000000000000000
:1001000000000000000000000000000000000000EF
:100110000000000000000000D9B500080000000049
:10012000D9B50008D9B50008D9B50008D9B5000877
:10013000D9B5000800000000000000000000000029
:10014000D9B50008D9B50008D9B50008D9B5000857
:10015000D9B50008D9B50008D9B50008D9B5000847
:10016000D9B50008D9B50008000000000000000063
:1001700000000000D9B5000800000000D9B5000853
:0C018000D9B50008D9B50008D9B50008B1
:1001900010B5074C2378002B07D1064B002B02D05B
:1001A0000548AFF300800123237010BC01BC004759
:1001B000F0090020000000001C570108054B10B595
:1001C000002B03D004490548AFF3008010BC01BCEC
:1001D0000047C04600000000F40900201C57010839
:1001E00000400FE10F0014E31C00000A0D30A0E1F5
:1001F000D110A0E301F021E103D0A0E101AA4DE27A
:100200000A30A0E1D710A0E301F021E103D0A0E182
:10021000013A43E2DB10A0E301F021E103D0A0E1C9
:10022000013A43E2D210A0E301F021E103D0A0E1C2
:10023000023A43E2D310A0E301F021E103D0A0E1B0
:10024000023943E2FF30C3E3FF3CC3E3DF10A0E326
:1002500001F021E103D0A0E1C04084E304F021E1FA
:1002600001A843E21EFF2FE17C309FE5000053E32D
:1002700068309F0503D0A0E1D8FFFFEB0010B0E38A
:1002800001B0A0E10170A0E160009FE560209FE562
:10029000002052E001308FE213FF2FE10BF01AFD36
:1002A000104B002B01D0FE469F460F4B002B01D078
:1002B000FE469F460020002104000D000E48002845
:1002C00002D00E480FF010FD0BF0ACF92000290011
:1002D00008F0B6FC0BF092F97B461847110000EFCE
:1002E0000000080000000000000000000000000006
:1002F000F0090020340C0020E9FC00080914010872
:100300007047704710B5094B4FF0FF329A630024D5
:100310009C631A641C649A629C62DA62DC621A63EF
:100320001C63FFF7EEFF204610BD00BF0010024027
:1003300010B504460F4B1B680BB9012010BD4FF4DC
:100340007A70B0FBF3F30C4A1068B0FBF3F000F0E6
:1003500071F968B90F2C01D90120EFE7002221467D
:100360004FF0FF3000F0FCF8024B5C600020E5E746
:100370000120E3E7040000202C00002010B503203A
:1003800000F0DCF80020FFF7D3FF044610B1012491
:10039000204610BD08F0D0FDFAE7034A1368034970
:1003A00009680B44136070470C0A00200400002009
:1003B000014B1868704700BF0C0A0020014B5868B9
:1003C000704700BF0400002010B50446074B1B68AF
:1003D000834201D1002010BD044B5868FFF7A8FFED
:1003E0000028F8D1014B1C60F5E700BF0400002095
:1003F000014B1868704700BF0400002038B5044660
:10040000FFF7D6FF0546B4F1FF3F02D0044B1B684F
:100410001C44FFF7CDFF401BA042FAD338BD00BFFC
:10042000040000204FF0E022136923F0020313615F
:1004300070474FF0E022136943F0020313617047E5
:100440000048704700010B01014B1868000C704711
:10045000002004E0024B1868C0F30B00704700BF97
:10046000002004E0014BD3F8900570470070FF1F97
:10047000014BD3F8940570470070FF1F014BD3F870
:10048000980570470070FF1F024A536843F001034C
:1004900053607047002004E0024A536823F00103D0
:1004A00053607047002004E0024A536843F002039F
:1004B00053607047002004E0024A536823F00203AF
:1004C00053607047002004E0024A536843F004037D
:1004D00053607047002004E0024A536823F004038D
:1004E00053607047002004E0044BCA225A62532232
:1004F0005A62034B0122C3F80023704700000140F9
:1005000000002042014B01221A6270470000204285
:10051000014B00221A62704700002042024A5368D1
:1005200043F480735360704700000140024A5368EF
:1005300023F4807353607047000001400749CA6884
:10054000030203F4E06322F4E0621204120C13438A
:1005500043F0BF6343F40033CB60704700ED00E02D
:1005600000B5184BDB68C3F30223C3F1070CBCF1E1
:10057000040F28BF4FF0040C03F1040EBEF1060F68
:100580008CBF033B00234FF0FF3E0EFA0CFC21EA28
:100590000C0199400EFA03F322EA030211430028EA
:1005A00009DB0901C9B200F1604000F5614080F843
:1005B00000135DF804FB00F00F000901C9B2024B03
:1005C0001954F6E700ED00E014ED00E0002808DB28
:1005D000420900F01F00012303FA00F0014B43F829
:1005E0002200704700E100E000280DDB430900F025
:1005F0001F00012202FA00F02033044A42F82300CF
:10060000BFF34F8FBFF36F8F704700BF00E100E073
:10061000BFF34F8F0549CA6802F4E062044B1343ED
:10062000CB60BFF34F8F00BFFDE700BF00ED00E0E0
:100630000400FA050138B0F1807F0BD24FF0E023BF
:100640005861054AF02182F82310002098610722A2
:100650001A6170470120704700ED00E0024BD86836
:10066000C0F30220704700BF00ED00E010B5002885
:1006700023DB00F1604000F5614090F800030009C1
:1006800001F00701C1F1070CBCF1040F28BF4FF0C6
:10069000040C0C1D062C8CBF033900214FF0FF3ECB
:1006A0000EFA0CFC20FA01F424EA0C0414600EFA91
:1006B00001F120EA0100186010BD00F00F00024CAB
:1006C000205C0009DCE700BF14ED00E0002809DB36
:1006D000430900F01F00012202FA00F04033024AF1
:1006E00042F82300704700BF00E100E000280BDB68
:1006F00043094033054A52F8233000F01F0023FA23
:1007000000F000F0010070470020704700E100E0B9
:10071000002809DB430900F01F00012202FA00F063
:100720006033024A42F82300704700BF00E100E056
:1007300000280BDB43098033054A52F8233000F0D0
:100740001F0023FA00F000F00100704700207047FE
:1007500000E100E004284FF0E02213690CBF43F0F1
:10076000040323F0040313617047704708B5FFF7D3
:10077000FCFF08BD40F00100034BC3F89400BFF339
:100780004F8FBFF36F8F704700ED00E0BFF35F8FB7
:10079000024B0022C3F89420704700BF00ED00E038
:1007A0004278164BC3F898200378FBB14368134A8C
:1007B000C2F89C30017BC37A1B0643EA01730178BF
:1007C0000B43817A43EAC143417B43EA8143817B06
:1007D00043EA4143C17B43EA0143417A43EA0123AF
:1007E000017A43EA4103C2F8A0307047034B00226C
:1007F000C3F89C20C3F8A020704700BF00ED00E0C4
:1008000010B4034600286ED00068384A904248D899
:10081000374A02443749A1FB0212120992005A6476
:10082000354A1A64022283F82520016821F4FF4129
:1008300021F070019A68DC6822431C6922435C69DC
:1008400022439C692243DC6922431C6A22430A43F7
:1008500002609A68B2F5804F1AD0196C264A91420C
:100860002AD02549D1F8A824586C00F01C0C0F2080
:1008700000FA0CF022EA0002C1F8A824D1F8A8443A
:100880005A6C02F01C005A6882402243C1F8A82426
:100890000020D863012283F8252083F8240010BCAF
:1008A0007047164A02441349A1FB02121209920032
:1008B0005A64134A1A64B5E71146D2F8A820586C56
:1008C00000F01C040F20A04022EA0002C1F8A8207A
:1008D000D1F8A8405A6C02F01C005A6882402243AA
:1008E000C1F8A820D4E70120D9E700BF07040240DF
:1008F000F8FFFDBFCDCCCCCC00000240F8FBFDBF23
:100900000004024010B4034600284FD001680A6872
:1009100022F001020A600168254A91422ED8254A38
:100920000A442548A0FB0202120992005A64234A95
:100930001A6400220A60186C5A6C02F01C01012231
:100940008A404260196C1D4A914222D01B4CD4F857
:10095000A824596C01F01C000F21814022EA0102F9
:10096000C4F8A8240020D862186358639863D86339
:1009700083F8250083F8240010BC7047104A0A440D
:100980000D48A0FB0202120992005A640D4A1A6433
:10099000CFE71446D2F8A820596C01F01C000F21B3
:1009A000814022EA0102C4F8A820DBE70120E3E746
:1009B00007040240F8FFFDBFCDCCCCCC00000240C4
:1009C000F8FBFDBF0004024030B490F824C0BCF135
:1009D000010F37D04FF0010C80F824C090F825C0EB
:1009E0005FFA8CFCBCF1010F05D0002380F82430A5
:1009F000022030BC7047022480F825400024C463E4
:100A000005682C6824F001042C60446C04F01C0C74
:100A1000012404FA0CF4056C6C600468636083685C
:100A2000102B0AD0036899600368DA6002681368C3
:100A300043F0010313600020DBE703689A6003685A
:100A4000D960F3E70220D4E730B490F824C0BCF1B9
:100A5000010F49D04FF0010C80F824C090F825C058
:100A60005FFA8CFCBCF1010F05D0002380F8243024
:100A7000022030BC7047022480F825400024C46363
:100A800005682C6824F001042C60446C04F01C0CF4
:100A9000012404FA0CF4056C6C60046863608368DC
:100AA000102B11D0036899600368DA60036B83B17F
:100AB0000268136843F00E0313600268136843F082
:100AC000010313600020D4E703689A600368D960CB
:100AD000ECE70268136823F00403136002681368EC
:100AE00043F00A031360E8E70220C2E790F82530DC
:100AF000DBB2022B06D00423C363002380F824302A
:100B0000012070470268136823F00E031360026827
:100B1000136823F001031360016C436C03F01C03A2
:100B2000012202FA03F34B6080F82520002380F8AD
:100B300024301846704708B590F82530DBB2022BF8
:100B400003D00423C363012008BD0268136823F0A7
:100B50000E0313600268136823F001031360016C35
:100B6000436C03F01C03012202FA03F34B6080F88C
:100B70002520002380F82430836B13B19847002090
:100B8000E2E70020E0E72DE9F843044688461546F1
:100B900090F82530DBB2022B07D00423C363002377
:100BA00080F824300120BDE8F88303681B6813F047
:100BB000200F2AD171BB466C06F01C06022303FAF3
:100BC00006F6FFF7F5FB81460827226C13683342CF
:100BD00032D11168636C03F01C0307FA03F008427A
:100BE0001FD1B5F1FF3FF1D0FFF7E2FBA0EB090009
:100BF000A84201D8002DE8D12023E363012084F826
:100C00002500002384F82430CDE74FF48073C363BC
:100C10000120C8E7466C06F01C06042303FA06F61A
:100C2000CFE7012000FA03F35360E06384F8250066
:100C3000002384F82430B6E7B8F1000F0CD1636CC0
:100C400003F01C0102238B405360012384F82530FC
:100C5000002084F82400A6E7636C03F01C01042341
:100C60008B405360F4E738B5036C19680468256855
:100C7000436C03F01C0304229A400A4215D015F07D
:100C8000040F12D0236813F0200F03D1236823F040
:100C900004032360016C436C03F01C0204239340A3
:100CA0004B60036B03B1984738BD02229A400A4259
:100CB0001CD015F0020F19D0236813F0200F06D1B5
:100CC000236823F00A032360012380F82530016C98
:100CD000436C03F01C02022393404B60002380F816
:100CE0002430C36A002BDFD09847DDE7082202FAE0
:100CF00003F30B42D8D015F0080FD5D0236823F0AA
:100D00000E032360016C436C03F01C03012202FA02
:100D100003F34B60C26380F82520002380F8243061
:100D2000436B002BC0D09847BEE7034690F82400E1
:100D300001281BD093F82500C0B2012804D001205F
:100D4000002283F8242070470329F9D8DFE801F056
:100D50000205080BDA620846F2E71A630020EFE7A3
:100D60005A630020ECE79A630020E9E7022070470D
:100D7000034690F82420012A26D0012280F824205E
:100D800090F82500C0B2904204D00120002283F8E0
:100D9000242070470429F9D8DFE801F003070A0D81
:100DA00010000022DA620846F0E700201863EDE741
:100DB00000205863EAE700209863E7E70020D86244
:100DC000186358639863E1E70220704790F82500A4
:100DD0007047C06B704700BFF0B4002858D000299E
:100DE00058D00A680260C2F3004302F01F040120D9
:100DF000A04012F0007F1DD04FEA431C264F5CF844
:100E000007508E6816F0010F14BF054385434CF858
:100E10000750224E5CF806508F6817F0020F14BF7F
:100E2000054385434CF806500D6805F0C06CBCF1D5
:100E3000C06F19D05B0103F1804202F58232146861
:100E40004D6815F0010F14BF044384431460144C23
:100E50001A59496811F0020F14BF104322EA00002A
:100E600018510020F0BC704704F01C0404F18044C9
:100E700004F58034A66802F003029200072595402D
:100E800026EA0506CD6805FA02F23243A260D1E7F0
:100E90000120E7E70120E5E7080401400C040140D8
:100EA0000404014030B500284BD000294BD0036822
:100EB0000B6003F01F0E012202FA0EF2C3F3004092
:100EC000400100F1804C0CF5823CDCF800402242ED
:100ED00014BF012400244C601C4D45592A421CBFFC
:100EE00044F002044C6013F0007F26D0184C0459E3
:100EF000224214BF012400248C60164D4059024246
:100F00001CBF44F002048C6003F0C063B3F1C06FF7
:100F100002D00020C86013E04FEA9E0302330E4A5D
:100F200052F823206FEA0E0303F003039B0002FA3A
:100F300003F31B0ECB60002002E000208860C86035
:100F400030BD0120FCE70120FAE700BF04040140A6
:100F5000080401400C0401400000014030B5844603
:100F6000002840D0046804F01F0EC4F300435B0166
:100F700003F1804101F582310868012202FA0EF284
:100F8000D54320EA020008601948195821EA0202F4
:100F90001A50DCF8002012F0007F26D015495A586C
:100FA0002A405A50144A99580D409D50DCF80030A0
:100FB00003F0C063B3F1C06F01D0002016E00EF063
:100FC0001C0E0EF1804E0EF5803EDEF8083004F067
:100FD0000304A400072202FA04F423EA0404CEF86E
:100FE0000840002002E0012000E0002030BD00BFEA
:100FF00004040140080401400C0401400346084673
:1010000009B95A6070470120704710B10160002093
:1010100070470120704710B5036803F01F010122DB
:101020008A40C3F300435B0104495C58144203D077
:101030005A50436803B1984710BD00BF14040140E3
:10104000036803F01F00C3F300435B01034A9A588F
:1010500001238340134023FA00F070471404014039
:10106000036803F01F0101228A40C3F300435B01C0
:1010700001495A50704700BF14040140036803F04F
:101080001F0101228A40C3F300435B0101495A500A
:10109000704700BF1004014010B40B46094C626950
:1010A00042F480226261EFF3108472B601F5807C15
:1010B000411A1A685A5004336345FAD184F31088F0
:1010C00010BC70470020024038B50C46234D2D78E7
:1010D000012D41D0214D0121297000216960204955
:1010E000096811F4806F1ED01D4D296821F48061BC
:1010F00029601A4902250D77022818D017490325BF
:101100000D72CC6016494D6945F040754D61E8B9E6
:101110000846496941F0010141612260BFF36F8FC8
:101120006360002017E00D4900250D77E4E70B4BC5
:1011300004211972DC600A494B6943F040734B612A
:1011400011462046FFF7A8FF002004E0431E012BB4
:1011500088BF0020F4D938BD0220FCE70C00002035
:10116000002002407047704710B5454A536923F488
:10117000FF7323F001035361424B1B7ADBB2042B54
:1011800024D03F4B1B69404A134024D13C4B1B6980
:1011900013F0010F5DD03A4B01221A61394B1B7AD3
:1011A000DBB2934247D1374B9A69013A9A619B6906
:1011B000002B34D0334C6069FFF7D4FF63690133EF
:1011C00063616069216900F0E5FA42E0536923F444
:1011D00080235361D5E72B4C62681A436260284A2A
:1011E000136100F047FB237ADBB2012B0ED0022BF8
:1011F00010D0033BDBB2012B9ABF224BD8680020F2
:10120000FFF7B1FF1F4B00221A72BFE76069FFF7BB
:10121000AAFFF7E71B4B1869FFF7A5FFF2E7194C88
:101220004FF0FF3363610023237200F023FB6069FA
:10123000FFF798FF0DE000F01DFB124B1B7ADBB2AD
:10124000022B12D0033BDBB2012B13D90D4B002232
:101250001A720C4B1B7A3BB9094A536923F040734D
:101260005361084B00221A7010BD064B1869FFF736
:1012700079FFEBE7034BD868FFF774FFE6E700BFA1
:10128000002002400C000020FAC30200074B5B69FB
:10129000002B01DB00207047044B054A9A6002F1E5
:1012A00088329A605869C00F704700BF0020024022
:1012B00023016745034A536943F00043536100200B
:1012C000704700BF00200240074B5B6913F0804F5E
:1012D00007D0054B054ADA6002F14432DA6000209B
:1012E00070470120704700BF002002403B2A1908C8
:1012F000034A536943F0804353610020704700BFA5
:1013000000200240014B5868704700BF0C000020CD
:1013100070B50446FFF74CF80646144D2B6913F4DC
:10132000803F09D0B4F1FF3FF8D0FFF741F8801BB0
:10133000A042F3D3032015E00C4B1B690C4A134069
:1013400009D10A4B1B6913F0010F0CD0074B012286
:101350001A61002006E007494A681A434A60034AB6
:101360001361012070BD0020FCE700BF0020024097
:10137000FAC302000C0000202DE9F04104460D469E
:1013800016469846294A1278012A4CD0274B01224A
:101390001A704CF25030FFF7BBFF0746D0B9234B11
:1013A00000225A60224B1B6813F4806F18D0204A29
:1013B000136823F4806313601C4B02221A779CB1DC
:1013C000631E012B26D94CF25030FFF7A1FF0746D0
:1013D00000F050FA154B00221A703846BDE8F08133
:1013E000124B00221A77EAE7114A536943F00103CE
:1013F00053612E60BFF36F8FC5F8048001244CF257
:101400005030FFF785FF0746094A536923EA040372
:101410005361DDE731462846FFF73EFE022CD2D16C
:101420004FF48024EBE70227D7E700BF0C00002031
:101430000020024008B5054A536943F00063536138
:101440004CF25030FFF764FF08BD00BF002002409F
:1014500010F0010F04D0054A536943F004035361AF
:10146000024A536943F480335361704700200240BD
:101470002DE9F04104469D4B1B78012B00F0338190
:101480009A4B01221A7000225A60036813F0010F70
:1014900017D10025236813F0020F44D1236813F0FD
:1014A000040F5ED1236813F0080F04D0276A666A20
:1014B000B74240F0DE808D4B00221A702846BDE80E
:1014C000F0814668D0F80880C7684CF25030FFF7CA
:1014D0001FFF0546B8B9D6B9854AD36A23F03F1332
:1014E00043EA080343EA0743D362814E736943F436
:1014F000003373614CF25030FFF70AFF0546736901
:1015000023F400337361003D18BF0125C2E7012EAB
:10151000EBD1774A136B23F03F1343EA080343EA06
:1015200007431363E1E727694CF25030FFF7F0FE01
:1015300008B10125B2E76E4E336A23F0FF033B4347
:101540003362736943F4003373614CF25030FFF738
:10155000DFFE736923F400337361002818BF01258F
:101560009CE76669A7694CF25030FFF7D1FE00286E
:101570007DD116F001031ABF07F4E0634FF4E06277
:101580001A4616F0020F04D007F480510B4342F4C0
:10159000805216F0040F04D007F400510B4342F4BC
:1015A000005216F4805F04D007F480410B4342F4EC
:1015B000804216F0080F04D007F480310B4342F448
:1015C000803216F0100F04D007F400310B4342F4C0
:1015D000003216F0200F04D007F480210B4342F4B0
:1015E000802216F0400F04D007F400210B4342F490
:1015F000002216F4007F04D007F400010B4342F4EC
:10160000000216F4806F04D007F080710B4342F0A3
:10161000807216F4006F04D007F000710B4342F0A3
:10162000007216F4005F04D007F080610B4342F0B3
:10163000806216F4804F04D007F000673B4342F00D
:1016400000622B4E316A21EA02021343336273694E
:1016500043F4003373614CF25030FFF759FE736965
:1016600023F400337361002818BF01251AE7012510
:1016700018E7D4F81C804CF25030FFF749FE80BBCD
:1016800018F0010F14D01A4A536A07F1784723F46F
:101690007F5323F03F0343EAD7075762936A06F16B
:1016A000784623F47F5323F03F0343EAD60696623D
:1016B0000F4CA36A23F0004308F0004843EA0803F4
:1016C000A362636943F4003363614CF25030FFF767
:1016D0001FFE636923F400336361002818BF0125EE
:1016E000E9E60125E7E60225E8E600BF0C00002058
:1016F00000200240062303604368012B08D9234BD6
:101700001B6ADBB2AA2B1AD0CC2B18D0BB2319E052
:10171000072202604BB91D4AD36A03F03F0383607E
:10172000D36AC3F30543C360E9E7184A136B03F0B8
:101730003F038360136BC3F30543C360DFE7134BC1
:101740001B6ADBB20361114B1B6A23F0FF03836149
:10175000C369012B00D07047036843F0080303609E
:101760000A494A6A0A4B03EAC20202F100620262B3
:101770008A6A03EAC20303F10063073343628B6A98
:1017800003F0004343F00103C361E4E7002002409B
:10179000F8FF0100084B5A69C00000F4FF6022F412
:1017A000FC72104358615A6942F002025A615A6948
:1017B00042F480325A6170470020024008B5034667
:1017C0002A4A1278012A4FD0284A0121117000219B
:1017D0005160274A126812F4007F2BD0244A116806
:1017E00021F400711160126812F4806F1ED020493C
:1017F0000A6822F480620A601C4A032111771C499E
:101800004A6942F040724A615968184A11611A687F
:10181000012A21D0154A01211172D9689161986875
:1018200050615968FFF7B6FF002008BD0F4A01213B
:101830001177E4E70E4A126812F4806F08D00C4961
:101840000A6822F480620A60084A02211177D6E70A
:10185000064A00211177D2E7044A02211172586822
:10186000FFF7F6FD0020E0E70220DEE70C00002095
:1018700000200240154B1A7FD3B202F0FD02012A6C
:1018800007D0023BDBB2012B11D9104B00221A7793
:1018900070470F4A116841F400611160116821F42A
:1018A00000611160116841F400711160E9E7084BB3
:1018B0001A6842F480521A601A6822F480521A6040
:1018C0001A6842F480621A60DFE700BF0C00002053
:1018D000002002402DE9F84304460F463C4B1B789C
:1018E000012B71D03A4B01221A704CF25030FFF7A5
:1018F0000FFD8146002861D1354B00225A60354BDF
:101900001B6813F4007F36D0324B1A6822F4007241
:101910001A601B6813F4806F29D02E4A136823F4D1
:10192000806313602A4B03221A772368012B34D07B
:101930004FF0FF333B60A568E3682B449D423BD2E8
:101940004CF25038234E61682846FFF723FF40468B
:10195000FFF7DEFC736923F4FD737361814650BBAE
:101960000135A368E2681344AB42ECD824E0184B7D
:1019700001221A77D9E7174B1B6813F4806F08D040
:10198000144A136823F480631360114B02221A7700
:10199000CBE70F4B00221A77C7E76068FFF758FDC7
:1019A0004CF25030FFF7B4FC81460A4A536923F0E9
:1019B0000403536100E03D60FFF75CFF044B00222D
:1019C0001A704846BDE8F8834FF00209F9E700BFF6
:1019D0000C000020002002402DE9F04F83B00B687E
:1019E000002B00F0C0804FF0000C62464FF0010E5B
:1019F00003254FF00F0B5D4C47E04FEAD20800EB98
:101A00008808D8F8203002F007094FEA89090BFA54
:101A100009F623EA06060B6903FA09F33343C8F80B
:101A2000203064E0002707FA09F747EA08079F60BB
:101A300023686FEA0A074E6816F4803F0CBF3B40EC
:101A40004AEA0303236063684E6816F4003F0CBF44
:101A50003B404AEA03036360A3684E6816F4801FA4
:101A60000CBF3B404AEA0303A360E3684E6816F4E8
:101A7000001F0CBF1F404AEA0307E76001320B68F2
:101A80000CF1020C33FA02F66DD00EFA02F717EAE7
:101A9000030AF3D04B6823F01003013B012B14D849
:101AA000836805FA0CF823EA0808CB6803FA0CF3FC
:101AB00043EA08038360436823EA07084B68C3F3DB
:101AC0000017974047EA08074760C36805FA0CF813
:101AD0006FEA080723EA08088B6803FA0CF343EA65
:101AE0000803C3604B6823F01003022B85D0036802
:101AF0001F404B6803F0030303FA0CF31F43076016
:101B00004B6813F0805FB9D0194E336E43F0010378
:101B10003366336E03F001030193019B22F003034C
:101B200003F1804303F580339F6802F003094FEA15
:101B300089090BFA09F827EA0808B0F1904F3FF439
:101B400071AF0C4EB0420AD006F58066B04208D0A4
:101B500006F58066B0420CBF0327072763E7774688
:101B600061E702275FE703B0BDE8F08F00040140A2
:101B700000100240000400482DE9F04F8C46002977
:101B800071D000234FF001084FF00F0A4FF0030B04
:101B9000364F27E04FF0000909FA04F4AC424DD06B
:101BA000046859000BFA01F10C430460DD0800EBF6
:101BB00085052E6A03F00704A4000AFA04F426EA55
:101BC00004042C62846824EA01048460446824EAE2
:101BD00002024260C26822EA0101C16001333CFA9C
:101BE00003F240D008FA03F212EA0C06F6D023F012
:101BF000030101F1804101F580318D6803F0030498
:101C0000A4000AFA04FE0EEA0505B0F1904FC1D017
:101C1000DFF85C9048450CD009F5806948450AD04A
:101C200009F5806948450CBF4FF003094FF00709DB
:101C3000B2E7C146B0E74FF00209ADE73C6824EADD
:101C400006043C607C6824EA06047C60BC6824EAE4
:101C50000604BC60FC6824EA0606FE608C6824EA80
:101C60000E048C609CE7BDE8F08F00BF00040140CB
:101C7000000400480369194214BF01200020704786
:101C80000AB1816170478162704743690B4214BF9A
:101C900081628161704782B04FF480330193019B70
:101CA0000B430193019BC361C161019BC361C36984
:101CB0000193C06980F48030C0F3004002B07047E7
:101CC000704708B5044B5B69034200D108BD024B65
:101CD0005861FFF7F5FFF9E70004014003689A69CE
:101CE00012F0020F1CBF00229A6203689A6912F078
:101CF000010F03D19A6942F001029A61704730B432
:101D0000029C056868684FEA545C0CF4806C4CF0E7
:101D10007F7C4CF4583C4CF47F7C4CF0030C20EA64
:101D20000C0044EA02441C43C1F309010C43044380
:101D30006C6030BC7047436B194A934218D0194A03
:101D4000934215D011F4004F0CBF0023B82311F0BB
:101D5000010F18BF43F0F20311F0020F18BF43F058
:101D6000F403202918D001680A6813430B607047F8
:101D700011F4004F05D1102901D19023F3E700237E
:101D800000E0B823202902D143F06003EBE74029AB
:101D9000E9D143F04003E6E743F02003E3E700BF67
:101DA000494C0008274B000811F0010F21D090F892
:101DB000413003F02803282B0CBF4223F22311F0FB
:101DC000020F09D090F8412002F02802282A0CBF07
:101DD00043F0440343F0F40311F4004F0BD11029F6
:101DE00010D143F0900301680A6822EA03030B60F4
:101DF00070470023E3E743F0B803402908BF43F0EE
:101E00004003F0E72029F8D143F02003EBE7C36A51
:101E1000AA2B07D0C36AB3F52A4F04BF4FF0007353
:101E2000C36270470023C362704770B505460C4615
:101E3000164603689B6913F0100F01D1002070BD96
:101E400029688B6913F0200F17D1B4F1FF3FF8D048
:101E5000FEF7AEFA801BA04201D8002CF0D16B6CCB
:101E600043F020036B64202385F84130002385F87C
:101E7000423085F840300120E1E71023CB612B6828
:101E80002024DC612846FFF729FF2A68536823F0E5
:101E9000FF7323F48B3323F4FF7323F001035360A8
:101EA0006B6C43F004036B6485F84140002385F8B4
:101EB000423085F840300120C1E770B504460D4638
:101EC000164623689B6913F0020F1DD1324629463E
:101ED0002046FFF7AAFFC8B9B5F1FF3FF1D0FEF7E2
:101EE00067FA801BA84201D8002DEAD1636C43F049
:101EF00020036364202384F84130002384F84230B7
:101F000084F84030012000E0002070BD0120FCE793
:101F10002DE9F04180460F4616461D46D8F80030A0
:101F20009C6937EA04020CBF4FF0010C4FF0000C23
:101F3000B4451AD1B5F1FF3FF2D0FEF739FA069B4E
:101F4000C01AA84201D8002DE8D1D8F8443043F097
:101F50002003C8F84430202388F84130002388F853
:101F6000423088F84030012000E00020BDE8F081D8
:101F70002DE9F04182B0044690461D46089E099F17
:101F8000194B00934FF08073EAB2FFF7B8FE3A4660
:101F900031462046FFF791FF08BB012D10D1236881
:101FA0005FFA88F29A620097334600228021204629
:101FB000FFF7AEFF003818BF012002B0BDE8F08186
:101FC00023684FEA18229A623A4631462046FFF7C4
:101FD00074FF30B923685FFA88F29A62E3E7012060
:101FE000EBE70120E9E700BF002000802DE9F04188
:101FF00082B0044690461D46089E099F184B0093E8
:102000000023EAB2FFF77BFE3A4631462046FFF74F
:1020100054FF08BB012D10D123685FFA88F29A6241
:1020200000973346002240212046FFF771FF003819
:1020300018BF012002B0BDE8F08123684FEA1822E2
:102040009A623A4631462046FFF737FF30B9236897
:102050005FFA88F29A62E3E70120EBE70120E9E703
:102060000020008070B505460C4616462B689B691B
:1020700013F0200F1AD1324621462846FFF7D5FE2D
:10208000B0B9FEF795F9801BA04201D8002CEDD124
:102090006B6C43F020036B64202385F841300023F0
:1020A00085F8423085F84030012070BD0020FCE703
:1020B0000120FAE770B504460D46164623689B6971
:1020C00013F0040F3ED1324629462046FFF7ADFEFD
:1020D0000146002838D123689A6912F0200F13D1E5
:1020E000FEF766F9801BA84201D8002DE6D1636C8B
:1020F00043F020036364202384F84130002384F8F4
:1021000040300121084670BD9A6912F0040F02D0D8
:10211000228D002AF6D12022DA6121684B6823F053
:10212000FF7323F48B3323F4FF7323F001034B601D
:102130000023636484F8412084F8423084F84030FE
:102140000121DFE70021DDE70121DBE7704710B562
:102150000446002853D090F84130002B45D024236A
:1021600084F841302268136823F001031360226869
:10217000636823F0706313612268936823F400435B
:102180009360E368012B2268A3680CBF43F400430B
:1021900043F404439360E368022B2BD02268536816
:1021A00043F0007343F4004353602268D36823F480
:1021B0000043D3602268236961690B43A16943EA44
:1021C0000123D3602268E369216A0B43136022680C
:1021D000136843F00103136000206064202384F837
:1021E0004130206384F8420010BD80F84030FFF792
:1021F000ADFFB4E723684FF400625A60CEE70120D8
:10220000F2E7704710B5044698B1242380F84130B6
:102210000268136823F001031360FFF7F2FF002048
:10222000606484F84100206384F8420084F8400030
:1022300010BD0120FCE72DE9F04782B004460F46AF
:10224000904699460A9E90F84110C9B2202940F064
:10225000A88090F84030012B00F0A7804FF0010AD1
:1022600080F840A0FEF7A4F80546009019235246D6
:102270004FF400412046FFF74BFE002840F09780C6
:10228000212384F84130102384F842300023636412
:10229000C4F82480A4F82A906363638D9BB2FF2B5B
:1022A00014D9FF222285464B00934FF080733946A4
:1022B0002046FFF724FD638D9BB2002B55D04FF0D5
:1022C00000084FF080094FF0007A1BE0628D92B257
:1022D00022853B4B00934FF00073D2B23946204623
:1022E000FFF70DFDE7E7628D92B22285CDF8008001
:1022F0005346D2B239462046FFF701FD638D9BB2AB
:10230000002B32D02A4631462046FFF7D6FD002862
:102310004FD12368626A12789A62636A01336362FA
:10232000638D013B9BB26385238D013B9BB223856B
:10233000628D92B2002AE1D0002BDFD100953346A6
:10234000424649462046FFF7E3FDA0BB638D9BB2A2
:10235000FF2BC8D9FF222285CDF800804FF0807373
:1023600039462046FFF7CBFCC8E72A4631462046CF
:10237000FFF778FE08BB23682022DA6121684B68EA
:1023800023F0FF7323F48B3323F4FF7323F0010353
:102390004B6084F84120002384F8423084F84030B8
:1023A00000E0022002B0BDE8F0870220FAE7012039
:1023B000F8E70120F6E70120F4E70120F2E700BF8B
:1023C000002000802DE9F04782B004460F46904679
:1023D00099460A9E90F84110C9B2202940F0A88081
:1023E00090F84030012B00F0A7804FF0010A80F8F0
:1023F00040A0FDF7DDFF05460090192352464FF43B
:1024000000412046FFF784FD002840F097802223FA
:1024100084F84130102384F8423000236364C4F808
:102420002480A4F82A906363638D9BB2FF2B14D998
:10243000FF222285454B00934FF08073394620469A
:10244000FFF75DFC638D9BB2002B55D04FF0000869
:102450004FF080094FF0007A1BE0628D92B2228526
:102460003A4B00934FF00073D2B239462046FFF743
:1024700046FCE7E7628D92B22285CDF80080534694
:10248000D2B239462046FFF73AFC638D9BB2002B4F
:1024900032D02A4631462046FFF70CFE00284FD1A5
:1024A00023685A6A636A1A70636A01336362238D10
:1024B000013B9BB22385628D013A92B26285628DA7
:1024C00092B2002AE1D0002BDFD10095334642467C
:1024D00049462046FFF71CFDA0BB638D9BB2FF2B36
:1024E000C8D9FF222285CDF800804FF0807339468D
:1024F0002046FFF704FCC8E72A4631462046FFF78E
:10250000B1FD08BB23682022DA6121684B6823F003
:10251000FF7323F48B3323F4FF7323F001034B6029
:1025200084F84120002384F8423084F8403000E0F1
:10253000022002B0BDE8F0870220FAE70120F8E7A8
:102540000120F6E70120F4E70120F2E700240080F3
:102550002DE9F04182B004460E4690461D4690F8A3
:102560004130DBB2202B40F0B480002976D0002A25
:1025700074D090F84030012B00F0AF80012380F838
:102580004030FDF715FF0746212384F84130202312
:1025900084F84230002262646662A4F82A80626392
:1025A00021684B6823F400434B6000902B460821C0
:1025B0002046FFF7ADFC002855D123680822DA61D8
:1025C000E368022B56D000972B4600224FF480314F
:1025D0002046FFF79DFC00285FD1638D9BB2CBB1F5
:1025E0003A4629462046FFF768FC00285CD123685C
:1025F000626A12789A62636A01336362B4F82AC02D
:102600000CF1FF3C1FFA8CFCA4F82AC0638D9BB22E
:10261000002BE5D13A4629462046FFF723FD48B175
:102620002268536843F400435360636C042B56D113
:102630000023636423682022DA6100972B4601227D
:102640004FF400412046FFF763FC002833D0226896
:10265000536843F40043536001203BE04FF40073A0
:102660006364012036E02268536843F400435360FA
:1026700001202FE000972B46002208212046FFF77B
:1026800047FC18B923680822DA619CE7226853687E
:1026900043F40043536001201CE02268536843F474
:1026A00000435360012015E02268536843F400435F
:1026B000536001200EE02268536843F400435360E6
:1026C000202384F84130002384F8423084F84030DD
:1026D00000E0022002B0BDE8F0810220FAE701200C
:1026E000F8E72DE9F04182B004460E4690461D46BB
:1026F00090F84130DBB2202B40F0A48051B34AB3B4
:1027000090F84030012B00F0A180012380F8403088
:10271000FDF74EFE0746222384F84130202384F83B
:102720004230002262646662A4F82A8062632168F3
:102730004B6823F400434B6000902B460821204651
:10274000FFF7E6FB58B12268536843F40043536037
:10275000012078E04FF400736364012073E0236884
:102760000822DA6100972B4601224FF4803120467F
:10277000FFF7CEFB40BB638D9BB2C3B13A462946FF
:102780002046FFF797FC30BB23685A6A636A1A70C9
:10279000636A01336362B4F82AC00CF1FF3C1FFA8C
:1027A0008CFCA4F82AC0638D9BB2002BE6D13A467C
:1027B00029462046FFF756FC18B32268536843F4B5
:1027C0000043536001203EE02268536843F4004315
:1027D0005360012037E02268536843F4004353609C
:1027E00023689A6912F0040F32D05A6A636A1A7029
:1027F000636A01336362638D013B9BB26385012091
:1028000021E023682022DA6100972B4601224FF451
:1028100000412046FFF77CFB30B12268536843F447
:102820000043536001200EE02268536843F40043E4
:102830005360202384F84130002384F8423084F828
:10284000403000E0022002B0BDE8F0810220FAE74B
:102850000120F8E730B583B0044690F84100C0B2DB
:10286000202836D12068806910F4004F33D194F8C5
:102870004000012831D0012084F84000212084F854
:102880004100102084F84200002060646262638589
:10289000134BE362134B6363638D9BB2FF2B04D82E
:1028A000628D92B24FF0007302E0FF224FF080730E
:1028B00022850D480090D2B22046FFF720FA00256D
:1028C00084F8405001212046FFF735FA284603B02E
:1028D00030BD0220FBE70220F9E70220F7E700BF46
:1028E0000000FFFFAB4900080020008030B583B036
:1028F000044690F84100C0B2202836D12068806993
:1029000010F4004F33D194F84000012831D0012059
:1029100084F84000222084F84100102084F842000E
:102920000020606462626385134BE362134B636350
:10293000638D9BB2FF2B04D8628D92B24FF000736F
:1029400002E0FF224FF0807322850D480090D2B242
:102950002046FFF7D4F9002584F840500221204694
:10296000FFF7E9F9284603B030BD0220FBE702205B
:10297000F9E70220F7E700BF0000FFFFAB490008BE
:102980000024008038B590F84130DBB2202B23D1F1
:1029900090F84030012B21D0012380F840302123D2
:1029A00080F84130202380F84230002444640568D8
:1029B0006B6823F400436B6041624285438D03855D
:1029C000074BC362074B436380F8404048F2010164
:1029D000FFF7B1F9204638BD0220FCE70220FAE7F4
:1029E0000000FFFF3947000838B590F84130DBB2EE
:1029F000202B23D190F84030012B21D0012380F8E7
:102A00004030222380F84130202380F842300024D7
:102A1000446405686B6823F400436B60416242853F
:102A2000438D0385074BC362074B436380F84040E7
:102A300048F20201FFF77FF9204638BD0220FCE78B
:102A40000220FAE70000FFFF39470008F0B583B025
:102A500004460E46114690F84100C0B2202860D1CD
:102A60002268926912F4004F5FD194F84020012A45
:102A70005DD0012284F84020212284F841201022D8
:102A800084F8422000226264616263853D4BE36208
:102A90003D4B6363638D9BB2FF2B4AD8638D9BB222
:102AA00023855BB34FF0007747E0202384F8413063
:102AB000002284F84220636C43F08003636484F84E
:102AC000402001252EE0314B00933B4694F828200E
:102AD00031462046FFF713F9638D228D9B1A9BB276
:102AE0006385002384F8403010212046FFF723F946
:102AF0002268136843F48043136013E0244B63633C
:102B0000224B00934FF00073002231462046FFF71E
:102B1000F6F8002584F8405001212046FFF70BF914
:102B200000E00225284603B0F0BD0225FAE70225A1
:102B3000F8E7FF2323854FF08077A36B002BB4D0F9
:102B4000144ADA62A36B144A5A63A26B002313631C
:102B5000A26B93632268238D2832A06BFDF774FF6C
:102B600005460028AFD0202384F84130002284F8A5
:102B70004220636C43F01003636484F84020012515
:102B8000D0E700BF0000FFFF494C00080020008094
:102B9000AB490008954D00087F4D0008F0B583B0A3
:102BA00004460E4690F84100C0B2202860D121684A
:102BB000896911F4004F5FD194F8401001295DD06C
:102BC000012184F84010222184F84110102184F85A
:102BD000421000216164626263853D4BE3623D4BBC
:102BE0006363638D9BB2FF2B4AD8638D9BB22385B1
:102BF0005BB34FF0007747E0202384F84130002298
:102C000084F84220636C43F08003636484F84020BE
:102C100001252EE0304B00933B4694F828203146A6
:102C20002046FFF76CF8638D228D9B1A9BB263855B
:102C3000002384F8403010212046FFF77CF82268FA
:102C4000136843F40043136013E0244B6363224B87
:102C500000934FF00073002231462046FFF74FF8F3
:102C6000002584F8405001212046FFF764F800E079
:102C70000225284603B0F0BD0225FAE70225F8E751
:102C8000FF2323854FF08077E36B002BB4D01449EA
:102C9000D962E36B13495963E16B00230B63E16B6A
:102CA0008B632168238D2431E06BFDF7CDFE054653
:102CB0000028AFD0202384F84130002284F842203D
:102CC000636C43F01003636484F840200125D0E76F
:102CD0000000FFFF494C000800240080AB490008B9
:102CE000EB4D00087F4D000838B5044690F84130A0
:102CF000DBB2202B62D100293AD0002A38D090F8DC
:102D00004030012B5DD0012380F84030212380F832
:102D10004130202380F842300023436441624285E1
:102D2000438D0385284BC362284B4363836B23B3D6
:102D3000274ADA62836B274A5A63826B0023136344
:102D4000826B93630268038D2832806BFDF77CFEF3
:102D5000054600B3282384F84130002284F842203D
:102D6000636C43F01003636484F84020012526E07F
:102D70004FF400736364012521E0282380F841307B
:102D8000002280F84220436C43F08003436480F8C3
:102D90004020012513E02268536823F40043536068
:102DA000002384F840304FF400412046FEF7C3FF73
:102DB0002268136843F48043136000E0022528462C
:102DC00038BD0225FBE700BF0000FFFF274B0008CE
:102DD000574300087F4D000838B5044690F841304D
:102DE000DBB2202B64D100293CD0002A3AD090F8E5
:102DF0004030012B5FD0012380F84030222380F83F
:102E00004130202380F842300023436441624285F0
:102E1000438D0385294BC362294B4363C36B33B393
:102E2000284ADA62C36B284A5A63C26B00231363D1
:102E3000C26B93630068238D0A4600F12401E06BA6
:102E4000FDF702FE054600B3282384F84130002236
:102E500084F84220636C43F01003636484F84020DC
:102E6000012526E04FF400736364012521E0282347
:102E700080F84130002280F84220436C43F0800308
:102E8000436480F84020012513E02268536823F44E
:102E900000435360002384F840304FF40041204643
:102EA000FEF749FF2268136843F40043136000E013
:102EB0000225284638BD0225FBE700BF0000FFFFC2
:102EC000274B0008734300087F4D00082DE9F04FA1
:102ED00083B004460D4690469946BDF834A00E9E38
:102EE00090F84110C9B2202940F0BC800C9BCBB1B6
:102EF000BAF1000F16D090F84030012B00F0B680E8
:102F00004FF0010B80F840B0FDF752FA07460090F1
:102F100019235A464FF400412046FEF7F9FF30B11D
:102F20000120A0E04FF40073636401209BE02123A3
:102F300084F84130402384F84230002363640C9AC3
:102F40006262A4F82AA06363019700964B4642464A
:102F500029462046FFF70CF8A0B9638D9BB2FF2BE2
:102F600015D9FF222285002300934FF08073294654
:102F70002046FEF7C4FE4FF000084FF080094FF0E6
:102F8000007A20E0002384F8403058466BE0628DE0
:102F900092B22285002300934FF00073D2B22946EB
:102FA0002046FEF7ACFEE6E7628D92B22285CDF8B0
:102FB00000805346D2B229462046FEF7A0FE638D1C
:102FC0009BB2002B32D03A4631462046FEF775FFC1
:102FD00000284DD12368626A12789A62636A0133CD
:102FE0006362638D013B9BB26385238D013B9BB282
:102FF0002385628D92B2002AE1D0002BDFD10097A9
:103000003346424649462046FEF782FF90BB638D19
:103010009BB2FF2BC8D9FF222285CDF800804FF04C
:10302000807329462046FEF76AFEC8E73A463146D5
:103030002046FFF717F8F8B923682022DA612168E3
:103040004B6823F0FF7323F48B3323F4FF7323F0D7
:1030500001034B6084F84120002384F8423084F857
:10306000403000E0022003B0BDE8F08F0220FAE714
:103070000120F8E70120F6E70120F4E72DE9F04F01
:1030800083B004460D4690469946BDF834A00E9E86
:1030900090F84110C9B2202940F0BF800C9BCBB101
:1030A000BAF1000F16D090F84030012B00F0B98033
:1030B0004FF0010B80F840B0FDF77AF90746009019
:1030C00019235A464FF400412046FEF721FF30B144
:1030D0000120A3E04FF40073636401209EE02223EB
:1030E00084F84130402384F84230002363640C9A12
:1030F0006262A4F82AA06363019700964B46424699
:1031000029462046FEF772FFA0B9638D9BB2FF2BC4
:1031100015D9FF222285474B00934FF08073294633
:103120002046FEF7ECFD4FF000084FF004094FF089
:10313000800A21E0002384F8403058466EE0628D1A
:1031400092B222853B4B00934FF00073D2B22946D6
:103150002046FEF7D4FDE6E7628D92B22285CDF8D7
:1031600000804FF00073D2B229462046FEF7C7FD1B
:10317000638D9BB2002B34D00097334642464946BC
:103180002046FEF7C5FE00284DD123685A6A636ABF
:103190001A70636A01336362238D013B9BB22385FE
:1031A000628D013A92B26285628D92B2002ADFD0BE
:1031B000002BDDD100973346424651462046FEF7AC
:1031C000A7FE90BB638D9BB2FF2BC5D9FF22228542
:1031D000CDF800804FF0807329462046FEF78FFD22
:1031E000C6E73A4631462046FEF73CFFF8B9236869
:1031F0002022DA6121684B6823F0FF7323F48B33BC
:1032000023F4FF7323F001034B6084F84120002373
:1032100084F8423084F8403000E0022003B0BDE87A
:10322000F08F0220FAE70120F8E70120F6E70120FD
:10323000F4E700BF002400802DE9F04182B004468D
:103240000D4617461E46BDF8248090F84100C0B2D6
:10325000202855D1089B002B39D0B8F1000F36D06B
:1032600023689B6913F4004F4FD194F84030012B31
:103270004DD0012384F84030FDF79AF8212384F8DB
:103280004130402384F8423000236364089B63622A
:10329000A4F82A801F4BE3621F4B6363638D9BB2CC
:1032A000FF2B19D8638D9BB24FF0007823850190D6
:1032B0001923009333463A4629462046FEF758FE26
:1032C000064668B1002384F84030012619E04FF427
:1032D00000736364012614E0FF234FF08078E5E774
:1032E00000270097434694F8282029462046FEF7F9
:1032F00006FD84F8407001212046FEF71CFD00E029
:103300000226304602B0BDE8F0810226F9E7022627
:10331000F7E700BF0000FFFFAB4900082DE9F041CF
:1033200082B004460D4617461E46BDF8248090F82C
:103330004100C0B2202856D1089B002B39D0B8F1EB
:10334000000F36D023689B6913F4004F50D194F8D6
:103350004030012B4ED0012384F84030FDF728F88F
:10336000222384F84130402384F8423000236364F0
:10337000089B6362A4F82A801F4BE3621F4B6363C0
:10338000638D9BB2FF2B19D8638D9BB24FF00078F1
:10339000238501901923009333463A462946204657
:1033A000FEF724FE064668B1002384F8403001266B
:1033B0001AE04FF400736364012615E0FF234FF019
:1033C0008078E5E70E4B0093434694F82820294681
:1033D0002046FEF794FC002384F84030022120466A
:1033E000FEF7A9FC00E00226304602B0BDE8F081FD
:1033F0000226F9E70226F7E70000FFFFAB490008C5
:10340000002400802DE9F04182B004460D461746A5
:103410001E46BDF8248090F84100C0B2202840F03C
:103420009280089B002B58D0B8F1000F55D023682C
:103430009B6913F4004F40F08B8094F84030012BCF
:1034400000F08880012384F84030FCF7B1FF21238D
:1034500084F84130402384F8423000236364089BA1
:103460006362A4F82A803C4BE3623C4B6363638D48
:103470009BB2FF2B36D8638D9BB24FF0007823852B
:1034800001901923009333463A4629462046FEF719
:103490006FFD58BBA36B73B3314ADA62A36B314A39
:1034A0005A63A26B00231363A26B93632268238D7C
:1034B00028320899A06BFDF7C7FA064648B32023C7
:1034C00084F84130002284F84220636C43F01003FA
:1034D000636484F84020012636E04FF4007363648F
:1034E000012631E0FF234FF08078C8E7002384F8FD
:1034F0004030012628E0202384F84130002284F85F
:103500004220636C43F08003636484F8402001260A
:103510001AE000270097434694F8282029462046C1
:10352000FEF7EDFB638D228D9B1A9BB2638584F8B9
:10353000407010212046FEF7FEFB2268136843F41A
:103540008043136000E00226304602B0BDE8F081FF
:103550000226F9E70226F7E70000FFFF494C0008C2
:10356000954D00087F4D00082DE9F04182B00446DA
:103570000D4617461E46BDF8248090F84100C0B2A3
:10358000202840F09380089B002B58D0B8F1000F02
:1035900055D023689B6913F4004F40F08C8094F859
:1035A0004030012B00F08980012384F84030FCF783
:1035B000FFFE222384F84130402384F84230002368
:1035C0006364089B6362A4F82A803D4BE3623D4B31
:1035D0006363638D9BB2FF2B36D8638D9BB24FF034
:1035E0000078238501901923009333463A462946F3
:1035F0002046FEF7FBFC58BBE36B73B3324ADA623A
:10360000E36B324A5A63E26B00231363E26B93630A
:103610002168238D089A2431E06BFDF715FA0646E0
:1036200048B3202384F84130002284F84220636CA0
:1036300043F01003636484F84020012637E04FF420
:1036400000736364012632E0FF234FF08078C8E7FF
:10365000002384F84030012629E0202384F84130FB
:10366000002284F84220636C43F08003636484F892
:10367000402001261BE0164B0093434694F8282077
:1036800029462046FEF73BFB638D228D9B1A9BB299
:103690006385002384F8403010212046FEF74BFB61
:1036A0002268136843F40043136000E002263046AA
:1036B00002B0BDE8F0810226F9E70226F7E700BF75
:1036C0000000FFFF494C0008EB4D00087F4D00084B
:1036D000002400802DE9F04385B0054690461C4645
:1036E0000023039390F84130DBB2202B40F09B8005
:1036F00003689B6913F4004F40F0978090F84030C6
:10370000012B00F09480012380F84030242380F8BE
:10371000413000234364C1F3090747F420593DE0D9
:103720002A689369916903F0200301F010010B43AB
:1037300017D1B4F1FF3FF3D0FCF73AFE801BA04253
:1037400001D8002CECD1202385F841306B6C43F07C
:1037500020036B64002385F84030012005B0BDE8EC
:10376000F0832B689B6913F0100F2ED00096234630
:10377000002220212846FEF7CBFB00285BD12B68D6
:103780001022DA612B682022DA61039B43452DD099
:10379000039B01330393039B434538D2EB68012B12
:1037A00006BF47F0007343F400534B462A6853604A
:1037B000FCF7FEFD06462B689A699B6902F0200221
:1037C00003F010031343B4D0CBE700962346002246
:1037D00020212846FEF79CFB58BB2A682023D36192
:1037E00085F84130002385F84030B7E72A685368F0
:1037F00043F480435360009623460022202128464C
:10380000FEF786FBC8B92B682022DA61C0E72023C7
:1038100085F841306B6C43F020036B64002385F81E
:10382000403001209AE7022098E7022096E7022024
:1038300094E7012092E7012090E701208EE770B520
:1038400082B004460D4690F84100C0B2202848D10D
:1038500094F84010012946D0012184F8401021211C
:1038600084F84110102184F84210002161646262E2
:103870006385069BE3621D4B6363638D9BB2FF2BE5
:103880000ED9FF2323854FF08076236B112B0BD1AC
:10389000069BAA2B08D0B3F52A4F05D000230CE0D5
:1038A000638D2385E66AF0E72046FEF7B0FA638D64
:1038B0009BB2FF2B13D8E66A0D4B0093334694F866
:1038C000282029462046FEF71AFA002584F84050A1
:1038D00001212046FEF72FFA284602B070BD044BA6
:1038E000EBE70220F9E70220F7E700BFAB49000849
:1038F000002000802DE9F04182B004460E461546B6
:10390000089A90F84100C0B2202840F09B8094F8BB
:103910004010012900F09B80012184F840102121F2
:1039200084F84110102184F842100021616465621E
:103930006385E262474B6363638D9BB2FF2B0ED9B5
:10394000FF2323854FF08077236B112B0BD1AA2AFD
:1039500009D0B2F52A4F06D04FF000080DE0638D74
:103960002385E76AF0E72046FEF751FA638D9BB2A4
:10397000FF2B28D8E76ADFF8E080238D002B4ED09C
:10398000A36B1BB3354ADA62A36B354A5A63A26B49
:1039900000231363A26B93632268238D2832294688
:1039A000A06BFDF751F80546F0B1202384F84130B3
:1039B000002284F84220636C43F01003636484F8AF
:1039C000402001253FE0DFF89080D6E7202384F8EF
:1039D0004130002284F84220636C43F0800363642A
:1039E00084F8402001252EE0CDF800803B4694F875
:1039F000282031462046FEF782F9638D228D9B1ADE
:103A00009BB26385002384F8403010212046FEF7E6
:103A100092F92268136843F48043136013E0114B5A
:103A200063630D4B00934FF0007300223146204634
:103A3000FEF765F9002584F8405001212046FEF785
:103A40007AF900E00225284602B0BDE8F08102259F
:103A5000F9E700BF494C000800200080954D0008A0
:103A60007F4D0008AB49000870B582B004460D4692
:103A700090F84100C0B2202848D194F840100129A4
:103A800046D0012184F84010222184F841101021F1
:103A900084F842100021616462626385069BE362E0
:103AA0001C4B6363638D9BB2FF2B0ED9FF232385D1
:103AB0004FF08076236B122B0BD1069BAA2B08D0DC
:103AC000B3F52A4F05D000230CE0638D2385E66A09
:103AD000F0E72046FEF79BF9638D9BB2FF2B13D8CE
:103AE000E66A0D4B0093334694F828202946204679
:103AF000FEF705F9002584F8405002212046FEF724
:103B00001AF9284602B070BD034BEBE70220F9E733
:103B10000220F7E7AB490008002400802DE9F041BE
:103B200082B004460E461546089A90F84100C0B28D
:103B3000202840F09B8094F84010012900F09B80E1
:103B4000012184F84010222184F84110102184F8CA
:103B500042100021616465626385E262474B6363E2
:103B6000638D9BB2FF2B0ED9FF2323854FF0807707
:103B7000236B122B0BD1AA2A09D0B2F52A4F06D0FB
:103B80004FF000080DE0638D2385E76AF0E72046DB
:103B9000FEF73DF9638D9BB2FF2B28D8E76ADFF86B
:103BA000E080238D002B4ED0E36B1BB3354ADA62E5
:103BB000E36B354A5A63E26B00231363E26B936352
:103BC0002168238D2A462431E06BFCF73DFF054632
:103BD000F0B1202384F84130002284F84220636C45
:103BE00043F01003636484F8402001253FE0DFF8D0
:103BF0009080D6E7202384F84130002284F84220C8
:103C0000636C43F08003636484F8402001252EE058
:103C1000CDF800803B4694F8282031462046FEF738
:103C20006EF8638D228D9B1A9BB26385002384F806
:103C3000403010212046FEF77EF82268136843F4D6
:103C40000043136013E0114B63630D4B00934FF07F
:103C50000073002231462046FEF751F8002584F813
:103C6000405001212046FEF766F800E00225284674
:103C700002B0BDE8F0810225F9E700BF494C000819
:103C800000240080EB4D00087F4D0008AB49000880
:103C9000F8B504460F4616461D4690F8410000F060
:103CA0002800282857D101B122B94FF4007363646A
:103CB000012051E048F201012046FEF775F894F822
:103CC0004030012B49D0012384F8403094F8413032
:103CD000DBB22A2B24D0292384F84130202384F816
:103CE0004230002363642268536823F40043536026
:103CF00067626685638D2385E562194B636323687C
:103D00009A6912F4803F1CBF0822DA61002584F80A
:103D1000405048F201012046FEF70DF828461BE00E
:103D200002212046FEF740F823681A6812F4004F7B
:103D3000D1D01A6822F400421A60E36B002BCAD07B
:103D4000084A9A63E06BFCF7F6FE0028C3D0E06BEC
:103D5000836B9847BFE70120F8BD0220FCE700BF56
:103D600039470008C74E0008F8B504460F46164606
:103D70001D4690F8410000F02800282840F0B78048
:103D8000002951D0002A4FD094F84030012B00F088
:103D9000B180012384F8403048F201012046FEF74B
:103DA00003F894F84130DBB22A2B42D094F841302A
:103DB000DBB2292B59D0292384F84130202384F801
:103DC0004230002363642268536823F40043536045
:103DD00067626685638D2385E562474B6363A36BEA
:103DE000002B59D0454ADA62A36B454A5A63A26B4D
:103DF00000231363A26B93632268238D2832394614
:103E0000A06BFCF721FE0546002853D0282384F838
:103E10004130002284F84220636C43F01003636455
:103E200084F84020012563E04FF4007363640125AA
:103E30005EE002212046FDF7B7FF23681A6812F4FE
:103E4000004FB8D0E26B002AB5D01A6822F40042C5
:103E50001A60E36B2B4A9A63E06BFCF76CFE002858
:103E6000A9D0E06B836B9847A5E723681A6812F422
:103E7000804FA0D01A6822F480421A60A36B002BF6
:103E800099D0204A9A63A06BFCF755FE002892D087
:103E9000A06B836B98478EE7282384F8413000227B
:103EA00084F84220636C43F08003636484F840200C
:103EB00001251DE0638D228D9B1A9BB26385002333
:103EC000238523689A6912F4803F0DD1002384F87A
:103ED00040304FF400412046FDF72DFF2268136863
:103EE00043F48043136003E00822DA61EEE7012522
:103EF0002846F8BD0225FBE7274B0008574300087A
:103F00007F4D0008C74E0008F8B504460F46164618
:103F10001D4690F8410000F02800282857D101B133
:103F200022B94FF400736364012051E048F20201AA
:103F30002046FDF739FF94F84030012B49D001238A
:103F400084F8403094F84130DBB2292B24D02A2366
:103F500084F84130202384F84230002363642268CF
:103F6000536823F40043536067626685638D23853D
:103F7000E562194B636323689A6912F4803F04BFBA
:103F80000822DA61002584F8405048F202012046F8
:103F9000FDF7D1FE28461BE001212046FDF704FF76
:103FA00023681A6812F4804FD1D01A6822F4804234
:103FB0001A60A36B002BCAD0084A9A63A06BFCF767
:103FC000BAFD0028C3D0A06B836B9847BFE70120E0
:103FD000F8BD0220FCE700BF39470008C74E0008C3
:103FE000F8B504460F4616461D4690F8410000F00D
:103FF0002800282840F0B58001B122B94FF40073A1
:1040000063640125AEE048F202012046FDF7CCFED4
:1040100094F84030012B00F0A780012384F8403051
:1040200094F84130DBB2292B3DD094F84130DBB21B
:104030002A2B54D02A2384F84130202384F842309C
:10404000002363642268536823F40043536067626B
:104050006685638D2385E562444B6363E36B002BC8
:1040600054D0434ADA62E36B424A5A63E26B00235C
:104070001363E26B93632168238D3A462431E06B2E
:10408000FCF7E2FC054600284ED0282384F8413096
:10409000002284F84220636C43F01003636484F8C8
:1040A000402001255EE001212046FDF77DFE2368CA
:1040B0001A6812F4804FBDD0A26B002ABAD01A68D9
:1040C00022F480421A60A36B2B4A9A63A06BFCF720
:1040D00032FD0028AED0A06B836B9847AAE7236817
:1040E0001A6812F4004FA5D01A6822F400421A6030
:1040F000E36B002B9ED0204A9A63E06BFCF71BFD1C
:10410000002897D0E06B836B984793E7282384F8C7
:104110004130002284F84220636C43F080036364E2
:1041200084F8402001251DE0638D228D9B1A9BB2EF
:1041300063850023238523689A6912F4803F0DD09C
:10414000002384F8403048F202012046FDF7F3FDD9
:104150002268136843F40043136003E00822DA6125
:10416000EEE701252846F8BD0225FBE7274B0008AE
:10417000734300087F4D0008C74E000808B590F84B
:104180004130DBB2202B01D0022008BD282380F86B
:104190004130044B43634FF40041FDF7CCFD002058
:1041A000F3E700BF3947000810B590F84130DBB2A3
:1041B000282B01D0022010BD90F8412090F8423009
:1041C00002F0030213430363202380F841300024EC
:1041D00080F8424044634FF40041FDF7E5FD20467E
:1041E000E9E730B583B004460D4690F84230DBB2C3
:1041F000102B31D190F84030012B30D0012380F8C2
:10420000403090F84130DBB2212B19D090F841308A
:10421000DBB2222B1AD0602384F84130114B00937B
:104220004FF00073012229462046FDF768FD002566
:1042300084F8405020212046FDF77DFD28460CE003
:104240000121FDF7B1FD11232363E4E70221FDF70E
:10425000ABFD12232363DEE7012003B030BD022053
:10426000FBE700BF0040008008B5036899691A6841
:10427000436B03B1984708BD7047704738B5044693
:10428000002380F8423090F84130DBB2212B0FD070
:10429000202380F841301223036300254563022167
:1042A000FDF782FD84F840502046FFF7E6FF38BD59
:1042B000202380F841301123036300254563012149
:1042C000FDF772FD84F840502046FFF7D5FFEEE77A
:1042D0007047704710B5044603681A68002180F8DB
:1042E000421012F4804F0ED01A6822F480421A60F5
:1042F00094F84130DBB2292B0DD094F84130DBB279
:104300002A2B18D010BD12F4004FF1D01A6822F4F5
:1043100000421A60ECE7282384F84130212323630C
:1043200001212046FDF740FD002384F8403020465F
:10433000FFF7CEFFE6E7282384F8413022232363EA
:1043400002212046FDF730FD002384F8403020464E
:10435000FFF7BFFFD6E708B5806AC36A33F0807302
:1043600006D10268136823F480431360FFF7B2FF9D
:1043700008BD08B5806AC26AC36B1B685B6813B965
:1043800012F5803F00D108BD0268136823F4004392
:104390001360FFF79FFFF6E77047F8B5044690F803
:1043A000413003F02803282B06D003680822DA6185
:1043B000002380F84030F8BD03689E69C6F30046CC
:1043C0009A69120C02F0FE059968DF68C268022A39
:1043D00025D1C1F3090285EAD11111F0060F10D1E0
:1043E000816C01318164816C0229E4D100218164F6
:1043F0000820D86184F8401031462046FFF7CCFFF2
:10440000D9E74FF40041FDF7CFFC002384F840309A
:1044100007F0FE0231462046FFF7BEFFCBE74FF420
:104420000041FDF7C1FC002384F840302A463146A4
:104430002046FFF7B1FFBEE7704710B50446174BA3
:10444000C36200230363202280F8412080F84230B9
:10445000436311F0040F12D003685A6A436A1A705A
:10446000436A01334362038D4BB1013B0385438DA6
:10447000013B9BB24385436C43F00403436448F221
:1044800003012046FDF790FC23681022DA61002327
:1044900084F840302046FFF7CFFF10BD0000FFFF3B
:1044A000704770477047704708B590F84130DBB2ED
:1044B000602B06D00023036380F84030FFF7F2FF43
:1044C00008BD202380F841300023036380F840308A
:1044D000FFF7E9FFF4E710B5044690F841300020FB
:1044E00084F842003A4AE2626085626C0A43626480
:1044F000283BDBB2022B19D803212046FDF754FCE0
:10450000282384F84130334B6363236BA26B1AB1C9
:10451000112B1BD0212B19D0E26B1AB1122B36D0E4
:10452000222B34D02046FFF7BFFF10BD48F2030115
:104530002046FDF739FC94F84130DBB2602B1CBFFC
:10454000202384F8413000236363DEE723681A6880
:1045500012F4804F03D01A6822F480421A60A06BD4
:10456000FCF734FC01280ED0A36B1B4A9A6300238E
:1045700084F84030A06BFCF7DEFA0028D5D0A06BA1
:10458000836B9847D1E72046FFF78EFFCDE723687E
:104590001A6812F4004F03D01A6822F400421A601D
:1045A000E06BFCF713FC01280ED0E36B0A4A9A6318
:1045B000002384F84030E06BFCF7BDFA0028B4D04B
:1045C000E06B836B9847B0E72046FFF76DFFACE7E1
:1045D0000000FFFF39470008C74E000870B50446C9
:1045E0000D460268166890F841302021D16103F031
:1045F000F703212B08D0222B0CD148F20201FDF742
:10460000D3FB2223236305E048F20101FDF7CCFB35
:10461000212323632268536843F4004353602268D4
:10462000536823F0FF7323F48B3323F4FF7323F0D9
:10463000010353602046FDF751FB16F4804F3FD035
:104640002268136823F480431360A36B1BB11B68BB
:104650005B689BB2638515F0040F10D025F004054C
:1046600023685A6A636A1A70636A01336362238D2E
:104670002BB1013B2385638D013B9BB26385638D29
:104680009BB21BB1636C43F004036364002384F8A2
:1046900042306363636C1BBBE36A13F5803F2DD12B
:1046A00094F84130DBB2222B38D0202384F84130FB
:1046B0000023236384F840302046FFF709FE2CE0F6
:1046C00016F4004FC7D02268136823F40043136028
:1046D000E36B002BBFD01B685B689BB26385BAE7B6
:1046E000616C2046FFF7F7FE94F84130DBB2282BCF
:1046F00013D129462046FFF7A0FE0EE02046FFF723
:10470000E9FD0C4BE362202384F84130002323634E
:1047100084F840302046FFF78FFE70BD202384F8D8
:1047200041300023236384F840302046FFF7D1FD59
:10473000F3E700BF0000FFFFF8B504460D4616463C
:10474000C76A90F84030012B00F09680012380F872
:10475000403011F0200F02D012F0200F19D115F0C7
:10476000100F3DD016F0100F3AD0638D9BB243BBB3
:1047700094F84130DBB2282B0ED094F84130DBB2F4
:10478000292B11D023681022DA61002084F8400020
:10479000F8BDFFF723FFE2E7B7F1007FEDD129462F
:1047A0002046FFF74AFEF0E717F5803FEAD023687E
:1047B0001022DA612046FDF791FA2046FFF78AFDC4
:1047C000E3E723681022DA61636C43F00403636457
:1047D00037F08073D9D1616C2046FFF77CFED4E7B7
:1047E00015F0040F1ED016F0040F1BD0638D9BB282
:1047F0006BB123685A6A636A1A70636A0133636231
:10480000238D013B2385638D013B9BB26385638DC3
:104810009BB2002BB9D117F5803FB6D02046FFF7E9
:1048200059FDB2E715F0080F02D016F0080F17D1A6
:1048300015F0020FA9D016F0020FA6D0638D9BB21F
:104840009BB12368626A12789A62636A0133636279
:10485000638D013B9BB26385238D013B238594E7E8
:1048600029462046FFF799FD8FE737F080738CD1FA
:104870002046FFF72FFD88E7022089E730B583B097
:1048800004460D4603682022DA6190F84130DBB21D
:10489000212B33D090F84130DBB2222B34D0226868
:1048A000536823F0FF7323F48B3323F4FF7323F057
:1048B0000103536000236363A3F58033E36215F0C3
:1048C000100F06D023681022DA61636C43F00403F2
:1048D000636494F84130DBB2602B1BD02046FDF7B7
:1048E000FDF9626C94F84130DBB2602B00D0D2B19C
:1048F000616C2046FFF7EFFD03B030BD0121FDF7ED
:1049000053FA11232363CAE70221FDF74DFA12235C
:104910002363C4E715F0040FE0D023685B6ADBB2C1
:104920000193019BDAE794F84130DBB2212B17D0D9
:1049300094F84130DBB2222BDED1202384F84130C1
:104940000023236394F84230DBB2402B24D00023B1
:1049500084F8423084F840302046FFF78EFCCBE7E5
:10496000202384F841300023236394F84230DBB2E3
:10497000402B08D0002384F8423084F84030204691
:10498000FFF77AFCB8E7002384F8423084F840301F
:104990002046FFF785FDAFE7002384F8423084F816
:1049A00040302046FFF77DFDA6E770B582B0044693
:1049B0000D46164690F84030012B00F0B2800123DE
:1049C00080F8403011F0100F02D012F0100F21D1FA
:1049D00015F0040F28D016F0040F25D025F004059B
:1049E00023685A6A636A1A70636A01336362238DAB
:1049F000013B2385638D013B9BB2638515F0200F3E
:104A000003D016F0200F40F08780002084F840008B
:104A100002B070BD03681022DA61436C43F00403F6
:104A20004364FDF75BF9E9E715F0020F11D016F0CA
:104A3000020F0ED02368626A12789A62636A0133A9
:104A40006362238D013B2385638D013B9BB26385AC
:104A5000D4E715F0800F3FD016F0400FCED0638D15
:104A60009BB25BB3238D4BBB23685968C1F309012B
:104A7000638D9BB2FF2B0ED8628D92B22285E36AC2
:104A800013F5803F11D0E36A00200090D2B2204697
:104A9000FDF735F9B2E7FF222285002300934FF09E
:104AA00080732046FDF72BF9A8E7002300934FF011
:104AB0000073D2B22046FDF722F99FE723685B68B6
:104AC00013F0007F03D12046FFF7D8FB96E7402183
:104AD0002046FFF700FD91E715F0400F8ED016F04D
:104AE000400F8BD0638D9BB28BB923685A6812F04C
:104AF000007F83D1E26A12F5803F04D15A6842F404
:104B000080425A607AE72046FFF7B8FB76E74021FB
:104B10002046FFF7E0FC71E729462046FFF7AEFE8E
:104B200073E7022074E7F8B504460D461646C76AD7
:104B300090F84030012B6BD0012380F8403011F009
:104B4000200F02D012F0200F1DD115F0100F50D001
:104B500016F0100F4DD0B10BF30B43EA963616F05A
:104B6000010F42D0E26B002A54D013F0010F51D054
:104B700013685B68B3FA83F35B09A26B52B111F05F
:104B8000010F07D003E0FFF729FDDEE700231268DD
:104B900052680AB1002B42D094F84130DBB2282B86
:104BA00008D094F84130DBB2292B0BD023681022B7
:104BB000DA6124E0B7F1007FF3D129462046FFF700
:104BC0003CFC1CE017F5803FF0D023681022DA612E
:104BD0002046FDF783F82046FFF77CFB0FE02363B8
:104BE000616C2046FFF777FC09E023681022DA6148
:104BF00005E015F0080F02D016F0080F03D10020D1
:104C000084F84000F8BD29462046FFF7C6FBF6E7CA
:104C10000220F7E7A26B12B111F0010FB6D12368A1
:104C20001022DA61636C43F00403636494F841304A
:104C3000DBB237F08072E2D103F0F703212BCED044
:104C4000222B08BF2363CBE710B582B0044690F84F
:104C50004030012B00F09180012380F8403011F0AA
:104C6000100F02D012F0100F33D111F0800F5AD074
:104C700012F0400F77D02268136823F040031360CE
:104C8000638D9BB2002B40D023685968C1F30901A2
:104C9000638D9BB2FF2B2ED9FF2323854FF08073AA
:104CA0000022009294F828202046FDF728F8638D12
:104CB000228D9B1A9BB2638594F84130DBB2222B84
:104CC000226813680CBF43F4004343F4804313602D
:104CD0000CE003681022DA61436C43F00403436480
:104CE0002021FDF728F82046FCF7F8FF002084F883
:104CF000400002B010BD638D2385E36A13F5803F49
:104D000014BFE36A4FF00073CAE723685B6813F0CF
:104D1000007F03D12046FFF7B1FAE7E740212046A4
:104D2000FFF7D9FBE2E711F0400F1CD012F0400F63
:104D300019D0638D9BB28BB923685A6812F0007F3B
:104D4000D4D1E26A12F5803F04D15A6842F480421D
:104D50005A60CBE72046FFF791FAC7E7402120468B
:104D6000FFF7B9FBC2E711F0200FBFD012F0200F00
:104D7000BCD02046FFF782FDB8E70220B9E708B5AE
:104D8000806A0268536843F4004353601021FFF7C0
:104D9000A2FB08BD10B5846A2268136823F480431F
:104DA0001360638D9BB2B3B1238D616A1944616254
:104DB000638D9BB2FF2B9ABF638D9BB2FF2323852C
:104DC00022682832A06BFBF73FFE48B11021204635
:104DD000FFF781FB10BD20212046FCF7ACFFF9E76F
:104DE00040212046FCF7A7FFF4E710B5846A22684B
:104DF000136823F400431360638D9BB2B3B1238D1A
:104E0000626A1A446262638D9BB2FF2B9ABF638D04
:104E10009BB2FF23238521682431E06BFBF714FE4E
:104E200048B110212046FFF756FB10BD2021204637
:104E3000FCF781FFF9E740212046FCF77CFFF4E70F
:104E400008B502689369116813F4807F10D011F0DF
:104E5000800F2ED0416C41F0010141644FF480710C
:104E6000D16113F4806F09D113F4007F11D118E0E0
:104E700013F4806F20D011F0800F12D0426C42F0FA
:104E80000802426402684FF48061D16113F4007F2C
:104E900007D0436C43F00203436403684FF400728D
:104EA000DA61416C11F00B0F00D108BDFFF713FB65
:104EB000FBE713F4806FF4D113F4007FF1D011F00D
:104EC000800FEED0E5E708B5806A836B0BB1002256
:104ED0009A63C36B0BB100229A63FFF7E5FA08BD32
:104EE00090F84100704790F842007047406C70475E
:104EF00090F84130DBB2202B24D190F84030012BC8
:104F000022D0012380F84030242380F84130026809
:104F1000136823F0010313600268136823F48053BD
:104F2000136002681368194311600268136843F044
:104F300001031360202380F84130002380F84030C3
:104F400018467047022070470220704790F84130A1
:104F5000DBB2202B22D190F84030012B20D001234E
:104F600080F84030242380F841300268136823F031
:104F7000010313600268136823F4706343EA01219C
:104F800011600268136843F001031360202380F866
:104F90004130002380F840301846704702207047A7
:104FA0000220704790F84130DBB2202B20D190F8DE
:104FB0004030012B1ED0012380F84030242380F89C
:104FC00041300268136823F001031360026813681C
:104FD00043F4802313600268136843F001031360F5
:104FE000202380F84130002380F840301846704775
:104FF000022070470220704790F84130DBB2202B2E
:1050000020D190F84030012B1ED0012380F8403091
:10501000242380F841300268136823F001031360F1
:105020000268136823F4802313600268136843F056
:1050300001031360202380F84130002380F84030C2
:1050400018467047022070470220704782B0084A15
:10505000116E41F001011166126E02F0010201921F
:10506000019B044A53680343536002B0704700BF7A
:10507000001002400000014082B0084A116E41F069
:1050800001011166126E02F001020192019B044AB5
:10509000536823EA0003536002B0704700100240D7
:1050A00000000140044B9A6B42F080529A639A6B65
:1050B00022F080529A63704700100240024A13683F
:1050C00043F480731360704700700040024A136815
:1050D00023F4807313607047007000401E4A5368C9
:1050E00023F00E0301680B4353601C4B5A6822F4F3
:1050F00080325A601A6822F480321A60DA6822F428
:105100008032DA609A6822F480329A60436813F43D
:10511000803F04D0114A136843F48033136043681E
:1051200013F4003F04D00D4A536843F480335360B6
:10513000436813F0010F04D0084A936843F48033A6
:105140009360436813F0020F04D0044AD36843F419
:105150008033D3600020704700700040000401409D
:10516000024A536843F001035360704700700040E7
:10517000024A536823F001035360704700700040F7
:10518000064AD36800F01F0123EA010343EA5010E6
:10519000D060936819439160704700BF0070004071
:1051A000034A936800F01F0023EA000393607047EE
:1051B0000070004010B50C46A0B90F4B5B6913F4AA
:1051C000007F0AD10D4A136923F004031361012CF7
:1051D00010D040BF20BF20BF10BD00F00FFB002843
:1051E000F0D0F9E7044B5B6913F4007FEAD100F0DB
:1051F000FDFAE7E730BFEFE70070004000ED00E0A8
:1052000008B5B0F5804F03D0084600F021FB08BD7B
:10521000084600F039FBFAE7064A136823F0070353
:1052200043F003031360044A136943F0040313615A
:1052300030BF70470070004000ED00E0024A136983
:1052400043F002031361704700ED00E0024A136966
:1052500023F002031361704700ED00E0024A136976
:1052600043F010031361704700ED00E0024A136938
:1052700023F010031361704700ED00E0704700BF9A
:10528000024B186800F4C060704700BF0070004017
:10529000B0F5007F0FD0204B1B6803F4C063B3F55B
:1052A000806F36D01C4A136823F4C06343F48063D4
:1052B000136000207047184B1B6803F4C063B3F5FC
:1052C000007F24D0144A136823F4C06343F40073AE
:1052D0001360124B1B68322101FB03F31049A1FB41
:1052E00003139B0C0133526912F4806F07D00A49F3
:1052F000013B4A6912F4806F01D0002BF8D1064BB4
:105300005B6913F4806F0CBF0020032070470020FE
:1053100070470020704700BF007000402C00002044
:1053200083DE1B43054AD36823F400730343D36031
:10533000D36843F48073D360704700BF00700040AF
:10534000024AD36823F48073D36070470070004032
:10535000024A536843F48063536070470070004012
:10536000024A536823F48063536070470070004022
:10537000024A936843F40043936070470070004012
:10538000024A936823F40043936070470070004022
:1053900007283FD8DFE800F004121E283E3E3E32C8
:1053A0001D4B186A21F4804202431A625A6A21F4A2
:1053B000204122EA0101596200207047164B9A6A87
:1053C0000A439A62DA6A21F0100122EA0101D962E5
:1053D00000207047104B1A6B0A431A635A6B22EA7B
:1053E00001015963002070470B4B9A6B0A439A6383
:1053F000DA6B22EA0101D96300207047064B9A6DEF
:1054000001F00B010A439A65DA6D22EA0101D965C0
:1054100000207047012070470070004007282CD8FA
:10542000DFE800F0040D141B2B2B2B22144A136A07
:1054300021F4804123EA0101116200207047104AE3
:10544000936A23EA01019162002070470C4A136BB2
:1054500023EA0101116300207047094A936B23EA94
:105460000101916300207047054A936D01F00B0123
:1054700023EA01019165002070470120704700BFB9
:105480000070004007283FD8DFE800F004121E2813
:105490003E3E3E321D4B586A21F4204202435A627E
:1054A0001A6A21F4804122EA010119620020704742
:1054B000164BD86A21F010020243DA629A6A22EA95
:1054C0000101996200207047104B5A6B0A435A63DE
:1054D0001A6B22EA01011963002070470B4BDA6B4B
:1054E0000A43DA639A6B22EA01019963002070474C
:1054F000064BDA6D01F00B010A43DA659A6D22EA78
:10550000010199650020704701207047007000403C
:1055100007282ED8DFE800F0040D161D2D2D2D24B0
:10552000154A536A21F4204123EA01015162002007
:105530007047114AD36A21F0100123EA0101D162B8
:10554000002070470C4A536B23EA0101516300208D
:105550007047094AD36B23EA0101D16300207047E9
:10556000054AD36D01F00B0123EA0101D16500204A
:1055700070470120704700BF00700040024A9368E6
:1055800043F480639360704700700040024A936860
:1055900023F48063936070470070004028B9094A83
:1055A000936823F4807393607047B0F5807F06D1D1
:1055B000044A936843F4807393600020704701208D
:1055C000704700BF0070004008B54FF48070FFF7CF
:1055D000E5FF08BD08B50020FFF7E0FF08BD034A5E
:1055E000936843F400639360704700BF007000400D
:1055F000024A936823F40063936070470070004090
:10560000024AD36843F40053D360704700700040EF
:10561000024AD36823F40053D360704700700040FF
:10562000024A536843F01003536070470070004013
:10563000024A536823F01003536070470070004023
:10564000024A536843F040035360704700700040C3
:10565000024A536823F040035360704700700040D3
:10566000024A536843F08003536070470070004063
:10567000024A536823F08003536070470070004073
:105680000368402B3CD0802B71D0102B01D001201F
:105690007047554B5A6A22F008025A621A6A22F081
:1056A00008021A62DA6A22F00802DA629A6A22F0C2
:1056B00008029A62436813F4803F04D04A4A136A8E
:1056C00043F008031362436813F4003F04D0464AD2
:1056D000536A43F008035362436813F0010F04D088
:1056E000414A936A43F008039362436813F0020F40
:1056F00074D03D4AD36A43F00803D3620020704758
:10570000394B5A6A22F020025A621A6A22F02002A9
:105710001A62DA6A22F02002DA629A6A22F0200221
:105720009A62436813F4803F04D02F4A136A43F00F
:1057300020031362436813F4003F04D02A4A536ADB
:1057400043F020035362436813F0010F04D0264A4C
:10575000936A43F020039362436813F0020F3FD033
:10576000214AD36A43F02003D362002070471E4BC6
:105770005A6A22F040025A621A6A22F040021A6201
:10578000DA6A22F04002DA629A6A22F040029A62F1
:10579000436813F4803F04D0134A136A43F0400374
:1057A0001362436813F4003F04D00F4A536A43F076
:1057B00040035362436813F0010F04D00A4A936A0E
:1057C00043F040039362436813F0020F0AD0064A85
:1057D000D36A43F04003D362002070470020704733
:1057E000002070470020704700040140024A1368FF
:1057F00043F480431360704700700040114A1368FF
:1058000023F480431360104B1B68322101FB03F328
:105810000E49A1FB03139B0C0133526912F4007F64
:1058200007D00849013B4A6912F4007F01D0002BE0
:10583000F8D1044B5B6913F4007F0CBF00200320F8
:10584000704700BF007000402C00002083DE1B4327
:105850000B4A136823F0070313600A4A136943F0E5
:1058600004031361012808D040BF20BF20BF054AB0
:10587000136923F004031361704730BFF7E700BFDB
:105880000070004000ED00E00C4A136823F00703AD
:1058900043F0010313600A4A136943F004031361E0
:1058A000012808D040BF20BF20BF054A136923F05C
:1058B00004031361704730BFF7E700BF007000407A
:1058C00000ED00E00C4A136823F0070343F00203E5
:1058D00013600A4A136943F004031361012808D0D6
:1058E00040BF20BF20BF054A136923F004031361A2
:1058F000704730BFF7E700BF0070004000ED00E0E8
:10590000064A136823F0070343F004031360044AB4
:10591000136943F00403136130BF70470070004007
:1059200000ED00E070477047704708B5164B5B69A3
:1059300013F4803F0FD1144B5B6B13F0080F11D1A0
:10594000114B5B6B13F0200F12D10F4B5B6B13F0FD
:10595000400F13D108BDFFF791FC0B4B4FF4803281
:105960005A61E8E7FFF7DEFF074B08225A63E7E7D3
:10597000FFF7D9FF044B20225A63E6E7FFF7D4FF75
:10598000014B40225A63E5E70004014030B583B083
:1059900004461E4B9B6D13F0805F0CD0FFF770FC2C
:1059A000B0F5007F18D0802C1FD82DD0702C14BFDC
:1059B000002401241AE0154DAB6D43F08053AB6514
:1059C000AB6D03F080530193019BFFF759FCAB6D66
:1059D00023F08053AB65E3E7802C04D9A02C8CBF67
:1059E0000224012402E0002400E0032408490B689B
:1059F00023F0070323430B60086800F00700001B37
:105A000018BF012003B030BD0224EFE700100240B0
:105A100000200240F8B5324A136843F001031360D6
:105A2000FAF7C6FC04462E4D2B6813F0020F07D17F
:105A3000FAF7BEFC001B0228F6D903252846F8BD5C
:105A4000274A136823F0F00343F060031360002338
:105A50009360244B244A1A60244B1868FAF768FCB8
:105A6000054608B10125E9E7FAF7A2FC04461C4EF9
:105A700041F28837B36813F00C0F06D0FAF798FCA0
:105A8000001BB842F6D90325D8E7154A1168184B10
:105A90000B401360FAF78CFC0446114E336813F088
:105AA000007F06D0FAF784FC001B0228F6D90325F4
:105AB000C4E70B4B0021D960DA6842F48052DA6007
:105AC0001A6822F480221A6099614FF0FF321A623C
:105AD000D3F8942042F40002C3F89420AEE700BF4C
